:10000000000008308A000028FF00030E8301A100D1
:100010000A08A0008A010408A2007708A300780853
:10002000A4007908A5007A08A6007B08A70083131E
:1000300083128C308400801E1F288C1A38288C3044
:100040008400801C25288C183B2822088400230863
:10005000F7002408F8002508F9002608FA00270808
:10006000FB0020088A00210E8300FF0E7F0E09008E
:100070008A110A1269288A110A123E28C30A031932
:10008000C40A4408023C03185628FF3A031D4C28B2
:100090004308E73C03185628B501B601B701B8017B
:1000A000B901BA01BB01BC01C401C3018C108A11A2
:1000B0000A1225280317A1012108313C031C6728D7
:1000C000A0302107840083138001A10A5C28031358
:1000D00000348C1E69281A080317A000A008031911
:1000E0007C28A030031342078400831303172008E1
:1000F00080000313C20A0317831603133108423C1E
:10010000031D87288312C401C3014114831683127F
:1001100003172008413C031D952841308316031323
:10012000A00001308312C200031703134208313CC0
:10013000031D9C28C2015A208C128A110A122528FC
:10014000D3308400831300080319AC28CF30F700A4
:10015000F70BA828800BA62800340330031797005C
:100160001508960083160313861183128611031750
:10017000980118080F3C031CDC280310960D970DFE
:100180000318C62803138712C828031703138716FA
:10019000C0124008831687008312C01140088316DE
:1001A000870083128715C0114008831687008312C9
:1001B00087110317980AB92898011808073C031CEF
:1001C000FE28031340164008831687008312071A7F
:1001D000EB280310EC2803140317990D0313C01127
:1001E00040088316870083128715C01140088316C4
:1001F0008700831287110317980ADD2883160313DB
:1002000086118312861503171908F80003130034AA
:10021000023003179B0017089A00180899008316EC
:10022000031386118312861103179C011C08173CC7
:10023000031C3A290310990D9A0D9B0D03182429CC
:10024000031387122629031703138716C0124008C9
:10025000831687008312C01140088316870083121B
:100260008715C01140088316870083128711031772
:100270009C0A1629831603138611831286150034EF
:100280000F30031795000313AD2078088316D400B0
:10029000530E7039F7000310F70D1F305405770423
:1002A000D4000F30831203179700831603135408EA
:1002B000831203179800031308210F3003179500CA
:1002C0000313AD2078088316D4005408F700F70E06
:1002D000770C0739530203196F2983125D298312A2
:1002E000003401308316EE001330ED00EC080319E2
:1002F000D2296D08840083136E1883176808800064
:100300006D080319EE03ED036D08840083136E1866
:100310008317690880006D080319EE03ED036D086B
:10032000840083136E1883176A08033980006D08F0
:10033000840083136E1883176A08F700F70DF70D12
:10034000F70DF830F7057708E039000480006D08F4
:10035000840083136E1883170008083880006D0826
:100360000319EE03ED036D08840083136E188317E1
:100370006A08F700F70EF70C0730F705770807391A
:1003800080006D08840083136E1883176B08F700D4
:10039000F70DF70DF70DF830F7057708F839000479
:1003A0008000162A6D08840083136E18831780015D
:1003B0006D080319EE03ED036D08840083136E18B6
:1003C000831780016D080319EE03ED036D088400A7
:1003D00083136E1883176808F700F70EF70DE030E7
:1003E000F7057708E03980006D080319EE03ED0387
:1003F0006D08840083136E1883176808F700F70CE4
:10040000F70CF70C1F30F70577081F3980006D08CF
:10041000840083136E1883176908F700F70EF70D31
:10042000E030F7057708E039000480006708E7034B
:1004300083120317940097001308980003130821F0
:1004400083166708E70383120317940097001208C6
:1004500098000313082183166708E7038312031724
:100460009400970011089800031308218316670869
:100470008312031797001008980003130821003413
:100480008316861183128615C011400883168700D3
:1004900083128711C0308316D30086118312861110
:1004A0008316D4015408073C031C742A0310D30D8F
:1004B00003185E2A83128712602A83168312871616
:1004C000C0124008831687008312C01140088316AB
:1004D000870083128715C011400883168700831296
:1004E00087118316D40A522A861183128615053085
:1004F0008316D3008312A020000004308316D3009B
:1005000083124021C030831653050438D3003F3096
:100510005305D300F83054050238D400C7305405D1
:100520002838D4005413D417F83055050538D500B1
:1005300055132A30831203179700831603135308A9
:10054000831203179800031308212930031797001B
:10055000831603135408831203179800031308210A
:1005600028300317970083160313550883120317C7
:1005700098000313082100008316D2019F30520512
:10058000D2005215603083120317970083160313AD
:1005900052088312031798000313082170300317C1
:1005A000970083160313520883120317980003134E
:1005B000082123308316E700EB01EA01E901E80195
:1005C0000130EC008312712103308316E700EB0148
:1005D000EA01E901E8010130EC00831271210730E2
:1005E0008316E700EB01EA01E901E8010130EC00C4
:1005F0008312712127308316E700EB01EA01E9013C
:10060000E8010130EC00831271210B308316E70002
:10061000EB01EA01E901E8010130EC0083127121EC
:1006200013308316E700EB01EA01E901E80101302C
:10063000EC008312712117308316E700EB01EA0109
:10064000E901E8010130EC00831271211B308316AF
:10065000E700EB01EA01E901E8010130EC00831257
:1006600071218316D301831240210000A8018B1B46
:10067000A8178B135A20A81B8B174110C2012030DA
:10068000F800063892000830831692008C148C16FD
:10069000C03083128B0483168511831285110430B8
:1006A0008316D200FA30D3008312A0208316D20B17
:1006B000522B83128A150A1252281030F700FA01C1
:1006C0008316E101DE0CDD0C031C6C2B5F08FA07BE
:1006D0000318E10A6008E107E10CFA0CF90CF80CC8
:1006E000F70B622B83120034411C5E2C831620080A
:1006F000413C03197D2B83125E2C061183120615D3
:10070000B501B601B701B801B901BA01BB01BC011D
:100710008316D2015208033C031C552C520DF700DE
:10072000F70DFC30F7057708013EA03E84008313E7
:100730000008FA01D3007A08D4005308203C031DB6
:10074000A42BD4080319BD2B30305302DB0054080E
:10075000DC000030031C0130DC025C08DE005B08BA
:10076000DD000330E000E830DF0083125D2379080C
:100770008316DA007808D900BF2BDA01D901520DAF
:10078000F700F70DFC30F7057708023EA03E840025
:1007900083130008FA01D3007A08D4005308203CE0
:1007A000031DD52BD4080319EC2B30305302DB008A
:1007B0005408DC000030031C0130DC025C08DE0061
:1007C0005B08DD00E0016430DF0083125D237908FF
:1007D0008316DA007808D900520DF700F70DFC30C7
:1007E000F7057708033EA03E840083130008FA0152
:1007F000D3007A08D4005308203C031D022CD408EF
:1008000003191B2C30305302DB005408DC0000308D
:10081000031C0130DC025C08DE005B08DD00E00147
:100820000A30DF0083125D2378088316D907031886
:10083000DA0A7908DA07520DF700F70DFC30F705F0
:100840007708043EA03E840083130008FA01D30019
:100850007A08D4005308203C031D312CD408031916
:10086000402C30305302DB005408DC000030031C05
:100870000130DC025B08D9070318DA0A5C08DA07E2
:100880000310520D353E840083135A08FA0180008C
:100890000310520D013E353E840083135A0800397F
:1008A000FA0059088000D20A8A2B8312A8018B1BF8
:1008B000A8178B135A20A81B8B1741108A150A12F0
:1008C0005D282C30031795000313AD20780883169C
:1008D000D20052186D2CD21C702C0130F800722CF2
:1008E0000030F800F8080319D12FD3012D30D200C1
:1008F0002C308312031795000313AD20780883165C
:10090000DD0060308312031795000313AD207808D3
:100910008316D50070308312031795000313AD20A2
:1009200078088316D6002D30831203179500031321
:10093000AD2078088316D7005D1CCB2C83123F12A4
:100940003F108316571FA72C83123F14831657138B
:100950002D30831203179700831603135708831251
:1009600003179800031308218316551DC42C00306B
:10097000551801300739F7000310F70DF1308312D5
:100980003F057704BF0083166530D8006230DA0077
:100990006630DC00FA2CDD1CF72C83123F163F106A
:1009A0008316D71FD62C83123F148316D7132D30EE
:1009B0008312031797008316031357088312031734
:1009C0009800031308218316560807390739F700E2
:1009D0000310F70DF13083123F057704BF00753027
:1009E0008316D8007230DA007630DC00FA2C003042
:1009F000F800F22E58088312031795000313AD2058
:100A000078088316D90059080F398312BE00BF1227
:100A10008316591F0E2D8312BF1683165A08831290
:100A2000031795000313AD2078088316DB008312AB
:100A30003F138316DB1D1F2D83123F1783160230D1
:100A40005A07DE00003083123F1B01308316DF009F
:100A50005E08E6005F08E7000130ED001330EC00AF
:100A60006608E60383120317940095000313AD2074
:100A7000780803179300831603136608E6038312AE
:100A80000317940095000313AD2078080317920014
:100A9000831603136608E603831203179400950078
:100AA0000313AD207808031791008316031366081B
:100AB0008312031795000313AD20780803179000E5
:100AC00083160313EB01EA01E901E801E7080319C2
:100AD0002A2E6D08FA006C08840083136D188317A2
:100AE0000008F700F801F901FA017A08EB0079082B
:100AF000EA007808E9007708E8006C080319ED03BC
:100B0000EC036C08840083136D18831700088312AC
:100B1000031797019601950194001608FA0015082D
:100B2000F9001408F800F701770883160313E804A6
:100B30007808E9047908EA047A08EB046C080319D8
:100B4000ED03EC036C08840083136D188317000811
:100B500083120317970196019501940003399800B9
:100B6000150800399900160800399A00170800394D
:100B70009B001908FA001808F900F701F801770836
:100B800083160313E8047808E9047908EA047A086C
:100B9000EB046C08840083136D188317000883121C
:100BA00003179701960195019400E0399800150804
:100BB00000399900160800399A00170800399B007F
:100BC000F701180DF800190DF9001A0DFA00F80DCB
:100BD000F90DFA0DF80DF90DFA0DF80DF90DFA0DE4
:100BE000F80DF90DFA0DE030F805770883160313B8
:100BF000E8047808E9047908EA047A08EB046C0848
:100C00000319ED03EC036C08840083136D1883173C
:100C10000008831203179701960195019400F701CC
:100C2000F801140DF900150DFA00F90DFA0DF90D82
:100C3000FA0DF90DFA0DF90DFA0DE030F905770806
:100C400083160313E8047808E9047908EA047A08AB
:100C5000EB049B2E0230EC020030031C0130ED024D
:100C60006C08840083136D18831700088312031720
:100C70009701960195019400E03998001508003914
:100C80009900160800399A00170800399B001B0CC0
:100C900083160313EB00831203171A0C8316031336
:100CA000EA0083120317190C83160313E900831259
:100CB0000317180C83160313E800EB0CEA0CE90C7D
:100CC000E80CEB0CEA0CE90CE80CEB0CEA0CE90C78
:100CD000E80CEB0CEA0CE90CE80C0730EB056C08AF
:100CE0000319ED03EC036C08840083136D1883175C
:100CF0000008831203179701960195019400140DC3
:100D0000F700150DF800160DF900170DFA00F70D94
:100D1000F80DF90DFA0DF70DF80DF90DFA0DF83083
:100D2000F705770883160313E8047808E9047908BF
:100D3000EA047A08EB046808F7006908F8006A0812
:100D4000F9006B08FA007A088312AC007908AB004E
:100D50007808AA007708A90083165C08D4008312DB
:100D60003E0883165C0754020318CF2E5308FA007E
:100D70005208DE005308DF00540883120317950061
:100D80000313AD2083165E08840083135F18831756
:100D900078088000D20A0319D30AD40AAF2E83122E
:100DA000BF138316DD1FD72E8312BF178316DD1FD7
:100DB000DA2EDD1383123F1EE12E8316DD10E32EA3
:100DC000831283165D102C3083120317970083164D
:100DD00003135D08831203179800031308210130E1
:100DE000F8008316F8080319D12F8312A908031DF0
:100DF000D02F2A0BD02FAB08031DD02FAC08031D1A
:100E0000D02F83168610831286148316D501D40141
:100E10000130D300D200D7013530D6000830D800D9
:100E20000130D900DA00DB0130308312031795005E
:100E30000313AD2078088316E400403083120317B3
:100E400095000313AD2078088316E5005030831217
:100E5000031795000313AD2078088316E600E41904
:100E60003B2F3630DE003030DF003430E0003530EC
:100E7000E100DD01582FE519482F4630DE004030F3
:100E8000DF004430E0004530E1000130DD00582F44
:100E9000E619552F5630DE005030DF005430E000A8
:100EA0005530E1000230DD00582F0030F800D12F1E
:100EB0005F088312031795000313AD20780883168B
:100EC000E20059080339F700FC3062057704E200BC
:100ED0005F088312031797008316031362088312B7
:100EE000031798000313082183166008E7005508CC
:100EF000EB005408EA005308E9005208E8005A08D9
:100F0000EC008312712183165808E30063135B1809
:100F1000631761088312031797008316031363088E
:100F20008312031798000313082183165E08DC0060
:100F300058085E075C020318B82F5708FA005608D5
:100F400084008313571883170008E7005C08831296
:100F5000031797008316031367088312031798007B
:100F6000031308218316D60A0319D70ADC0A982F1F
:100F70005F088312031795000313AD2078088316CA
:100F8000E200E2155F08831203179700831603132C
:100F90006208831203179800031308210130F80038
:0A0FA000831683128A150A126028D6
:101000001F3083055030F7002030840083138001A7
:10101000840A6400F70B0728F101F201F301F401DF
:10102000F501F601F801F901FA01FB01FC01FD01EE
:10103000FE015030F700A030840083138001840A41
:101040006400F70B1E286030F7001030840083170F
:101050008001840A6400F70B282883135930F700B5
:101060009030840083178001840A6400F70B3328D2
:101070008313A001840183131F30830583161F147B
:101080009F141F159F11073083129F000330831692
:10109000990022309800903083129800FF30C000F1
:1010A0008A11402A8A1583168610831286108316A9
:1010B0000611831206118A11742B8A158A11612C6C
:0610C0008A155328622886
:02400E00313748
:00000001FF
;PIC16F876A
