:10000000000000308A008729FF00030E8301A10051
:100010000A08A0008A010408A2007708A300780853
:10002000A4007908A5007A08A6007B08A70083131E
:1000300083128C308400801C1F288C1832282208E0
:1000400084002308F7002408F8002508F900260892
:10005000FA002708FB0020088A00210E8300FF0E0B
:100060007F0E09008A110A123528B10A0319B20A53
:100070003108C83C031D3F28B20803193014310869
:10008000F43C031D4628320B4628B0143108F43CDA
:10009000031D4E28320B4E28B201B1018C108A117B
:1000A0000A121F28353084008313000803196728BB
:1000B0000130F800F701F70B5B28F80B5A284A309B
:1000C000F700F70B612800000000800B58288A1108
:1000D0000A12822883161F109F101F119F111F13D1
:1000E00083121F139F1383169F1783121F1433113C
:1000F000330883168700831207110430B400FA30E6
:10010000B5005228B40B7F282030F8000638920042
:100110000830831692008C14C03083128B048A112D
:100120000A12D429301CF5280030F8001F08C739FE
:1001300078049F002130F700F70B9C281F151F192A
:100140009F2883161E08003C8312A8000430A900D3
:100150001E08031C1E0FA9020830F8001F08C7392B
:1001600078049F002130F700F70BB4281F151F19E2
:10017000B72883161E08003C8312AA000430AB0087
:100180001E08031C1E0FAB021030F8001F08C739F1
:1001900078049F002130F700F70BCC281F151F199A
:1001A000CF2883161E08003C8312AC000430AD003B
:1001B0001E08031C1E0FAD021830F8001F08C739B7
:1001C00078049F002130F700F70BE4281F151F1952
:1001D000E72883161E08003C8312AE000430AF00EF
:1001E0001E08031C1E0FAF0230108A110A12D529F7
:1001F000BE010408BD003E10831B3E14370EF038CC
:10020000B900B907E23EBA00323EBC0037080F39E8
:10021000BA07BA07BC07E93EBB00BB07BB07360EEF
:100220000F39BB07BC07BB0DBC0DBC09BC0D3608A4
:100230000F39BC07B90D0730B8000A30BC07BB0343
:10024000031C1E29BB07BA03031C2229BA07B903E2
:10025000031C2629B907B803031C2A293830840057
:10026000831307303D0584073C30040203194C29F1
:100270000008F700031D42293D1A4A29BD194429E7
:10028000203045290830BD003030F70777080C1EB4
:1002900047299900840A34290008F7003030F7070D
:1002A00077080C1E512999000034B01C842983164C
:1002B00086108312861441300C1E5C29990001308F
:1002C00084002908B7002808B600F820013084000F
:1002D0002B08B7002A08B600F820013084002D084A
:1002E000B7002C08B600F820013084002F08B700B2
:1002F0002E08B600F82042300C1E7C299900B01060
:1003000083168610831286108A110A12D6291F308E
:1003100083055030F7002030840083138001840A65
:10032000F70B8E29F101F201F301F401F501F60159
:10033000F801F901FA01FB01FC01FD01FE01503059
:10034000F700A030840083138001840AF70BA429EE
:100350006030F7001030840083178001840AF70BA7
:10036000AD2983135930F700903084008317800142
:10037000840AF70BB7298313A001840183131F306C
:10038000830583161F149F141F159F1107308312B6
:100390009F00193083169900263098009030831200
:1003A0009800FF30B3006A2892285529D429D7290C
:02400E00313748
:00000001FF
;PIC16F876A
