:10000000000000308A004F2FFF00030E8301A10083
:100010000A08A0008A010408A2007708A300780853
:10002000A4007908A5007A08A6007B08A70083131E
:1000300083128C308400801C1F288C1832282208E0
:1000400084002308F7002408F8002508F900260892
:10005000FA002708FB0020088A00210E8300FF0E0B
:100060007F0E09008A110A123528CC0A0319CD0A1D
:100070004C08F43C031D3F284D0B3F284B144C0803
:10008000F43C031D47284D0B4728CD01CC018C10B3
:100090008A110A121F286230840083130008031992
:1000A0005728CF30F700F70B5328800B51288A11BF
:1000B0000A120A2A03308316AD002B08AC00861101
:1000C000831286118316AE012E080F3C031C87286D
:1000D0000310AC0DAD0D031871288312871273281D
:1000E000831683128716BF123F0883168700831278
:1000F000BF113F088316870083128715BF113F0881
:1001000083168700831287118316AE0A6428AE0116
:100110002E08073C031CA92883123F163F088316AC
:1001200087008312071A9628031097280314831652
:10013000AF0D8312BF113F08831687008312871506
:10014000BF113F0883168700831287118316AE0AFA
:10015000882886118312861583162F08F8008312CB
:10016000003402308316B0002C08AF002D08AE001A
:100170008611831286118316B1013108173C031CC6
:10018000E1280310AE0DAF0DB00D0318CB2883127C
:100190008712CD28831683128716BF123F08831655
:1001A00087008312BF113F088316870083128715CB
:1001B000BF113F0883168700831287118316B10A87
:1001C000BD2886118312861500340F308316AB00CC
:1001D00083125A207808E300620E7039F70003108A
:1001E000F70D1F3063057704E3000F308316AC0072
:1001F000831263088316AD008312B1200F3083167B
:10020000AB0083125A207808E3006308F700F70E6A
:10021000770C07396202031DFE2800348316A901FA
:10022000A730A800FD0803196E292808840083134D
:10023000291883172008800028080319A903A80398
:1002400028088400831329188317210880002808B0
:100250000319A903A8032808840083132918831706
:100260002208033980002808840083132918831783
:100270002208F700F70DF70DF70DF830F7057708AE
:10028000E0390004800028088400831329188317AC
:1002900000080838800028080319A903A8032808C3
:1002A00084008313291883172208F700F70EF70C30
:1002B0000730F70577080739800028088400831382
:1002C000291883172308F700F70DF70DF70DF830FD
:1002D000F7057708F83900048000B229280884005F
:1002E000831329188317800128080319A903A80379
:1002F000280884008313291883178001280803190C
:10030000A903A80328088400831329188317200849
:10031000F700F70EF70DE030F7057708E0398000B9
:1003200028080319A903A80328088400831329189F
:1003300083172008F700F70CF70CF70C1F30F705B0
:1003400077081F3980002808840083132918831731
:100350002108F700F70EF70DE030F7057708E039D0
:10036000000480007C08FC03AA00AC002708AD0054
:100370008312B1207C08FC038316AA00AC00260877
:10038000AD008312B1207C08FC038316AA00AC00E8
:100390002508AD008312B1207C088316AC00240828
:1003A000AD008312B12000348316861183128615A6
:1003B000BF113F088316870083128711C030E20007
:1003C0008316861183128611E3016308073C031C20
:1003D000032A0310E20D0318EF298712F02987166C
:1003E000BF123F08831687008312BF113F08831690
:1003F000870083128715BF113F0883168700831279
:100400008711E30AE52983168611831286150530C4
:10041000E2004B2800000430E200E520C030620515
:100420000438E2003F306205E200F830630502382C
:10043000E300C73063052838E3006313E317F8309F
:1004400064050538E40064132A308316AC00831277
:1004500062088316AD008312B12029308316AC00E8
:10046000831263088316AD008312B12028308316EF
:10047000AC00831264088316AD008312B120000023
:10048000E1019F306105E100611560308316AC0029
:10049000831261088316AD008312B1207030831679
:1004A000AC00831261088316AD008312B1202330A3
:1004B000FC008316A301A201A101A0010130FD00EF
:1004C00083120E210330FC008316A301A201A101B7
:1004D000A0010130FD0083120E210730FC008316BD
:1004E000A301A201A101A0010130FD0083120E2190
:1004F0002730FC008316A301A201A101A001013055
:10050000FD0083120E210B30FC008316A301A20113
:10051000A101A0010130FD0083120E211330FC0067
:100520008316A301A201A101A0010130FD008312E5
:100530000E211730FC008316A301A201A101A00126
:100540000130FD0083120E211B30FC008316A30135
:10055000A201A101A0010130FD0083120E21E201E0
:10056000E520000083161F109F101F119F111F13FD
:1005700083121F139F1383169F1783121F1420309B
:10058000F800063892000830831692008C14C030B0
:1005900083128B048A110A12982FC308031DD42AD0
:1005A0004208893C0318D62A0130C900C308031D3C
:1005B000DE2A4208853C031CDE2AC90101304607B9
:1005C000F8004708FA000318FA0A7A084502031CE3
:1005D000F22A031DEF2A440878020318F22A013098
:1005E000C800F32AC801C308031DFD2A4208713C54
:1005F000031CFD2A0130CA00FE2ACA018A110A1210
:100600009D2F1030F700FA01E701E40CE30C031C06
:100610000F2B6508FA070318E70A6608E707E70CD7
:10062000FA0CF90CF80CF70B052B0034F801F90162
:10063000F701FA016808031D202B670803193A2BFC
:100640001030E9000310E50DE60DF70DFA0D68080E
:100650007A02031D2D2B67087702031C362B6708CF
:10066000F702031CFA036808FA020314F80DF90DE7
:10067000E90B222B000000344B1CF82B0030F80053
:100680001F08C73978049F001430F700F70B462B7A
:1006900000001F151F194A2B83161E088312E10044
:1006A0001E08E2006208E4006108E300E60114307D
:1006B000E50001237908E4007808E3007908E60002
:1006C0007808E500E8016430E70016237908E200C5
:1006D0007808E1004F304E078400831361088000E2
:1006E0000830F8001F08C73978049F001430F7005D
:1006F000F70B782B00001F151F197C2B83161E0883
:100700008312E1001E08E2006208E6006108E500CD
:10071000E8010330E70016237908E2007808E100D9
:1007200004304E074F3E8400831361088000103070
:10073000F8001F08C73978049F001430F700F70B42
:100740009F2B00001F151F19A32B83161E08831251
:10075000E1001E08E2006208E4006108E300E6012F
:100760001430E50001237908E4007808E3007908F3
:10077000E6007808E500E8016430E7001623790810
:10078000E2007808E10008304E074F3E84008313F2
:10079000610880001830F8001F08C73978049F00EE
:1007A0001430F700F70BD22B00001F151F19D62BA2
:1007B00083161E088312E1001E08E2006208E600AC
:1007C0006108E500E8010330E70016237908E2003C
:1007D0007808E1000C304E074F3E84008313610817
:1007E0008000CE0A4E08033C031CCE014B10CB14F4
:1007F0008A110A129E2FCB1C652CE201E101E30154
:100800006308033C031C0E2C4F30630784008313E2
:100810000008E1070318E20AE30A002C620CC10099
:10082000610CC000C10CC00C3F30C105E201E10108
:100830000430E3006308073C031C282C4F30630797
:10084000840083130008E1070318E20AE30A1A2C64
:10085000620CC500610CC400C50CC40C3F30C5055A
:10086000E201E1010830E30063080B3C031C422C69
:100870004F306307840083130008E1070318E20A7E
:10088000E30A342C620CC300610CC200C30CC20C1E
:100890003F30C305E201E1010C30E30063080F3C87
:1008A000031C5C2C4F306307840083130008E107AE
:1008B0000318E20AE30A4E2C620CC700610CC60062
:1008C000C70CC60C3F30C705CB108A110A129F2FE8
:1008D0002C308316AB0083125A207808E10061188F
:1008E000732CE11C762C0130F800782C0030F800D5
:1008F000F80803194C2FE2012C30E1002C3083164C
:10090000AB0083125A207808EC0060308316AB00ED
:1009100083125A207808E40070308316AB008312EB
:100920005A207808E5002D308316AB0083125A2038
:100930007808E6006C1CBE2C3E123E10661B3E146E
:1009400066132D308316AC00831266088316AD0043
:100950008312B120641DB72C0030641801300739B0
:10096000F7000310F70DF1303E057704BE00653047
:10097000E7006230E9006630EB00E22CEC1CDF2C73
:100980003E163E10E61B3E14E6132D308316AC00D7
:10099000831266088316AD008312B12065080739FB
:1009A0000739F7000310F70DF1303E057704BE005C
:1009B0007530E7007230E9007630EB00E22C003051
:1009C000F8007A2E67088316AB0083125A20780845
:1009D000E80068080F39BD00BE12681BBE16690822
:1009E0008316AB0083125A207808EA003E13EA19F6
:1009F0003E1702306907ED0000303E1B0130EE006B
:100A00006D08F6006E08FC00FE01A730FD007608B8
:100A1000F6038316A800AB0083125A2078088316C9
:100A2000A7007608F603A800AB0083125A207808C6
:100A30008316A6007608F603A800AB0083125A209E
:100A400078088316A5007608AB0083125A20780830
:100A50008316A400A301A201A101A001FC080319AF
:100A6000D82D7E08FA007D08840083137E18831732
:100A70000008F700F801F901FA017A08A3007908E3
:100A8000A2007808A1007708A0007D080319FE03E2
:100A9000FD037D08840083137E1883170008AB01D3
:100AA000AA01A901A800F7017708A0042808A10459
:100AB0002908A2042A08A3047D080319FE03FD03E4
:100AC0007D08840083137E1883170008AB01AA01F8
:100AD000A901A8000339AC0029080039AD002A0893
:100AE0000039AE002B080039AF00F701F801770894
:100AF000A0047808A1042C08A2042D08A3047D08F2
:100B0000840083137E1883170008AB01AA01A90192
:100B1000A800E039AC0029080039AD002A080039E6
:100B2000AE002B080039AF00F7012C0DF8002D0D99
:100B3000F9002E0DFA00F80DF90DFA0DF80DF90D6A
:100B4000FA0DF80DF90DFA0DF80DF90DFA0DE0306A
:100B5000F8057708A0047808A1047908A2047A08A7
:100B6000A3047D080319FE03FD037D08840083139D
:100B70007E1883170008AB01AA01A901A800F7019C
:100B8000F801280DF900290DFA00F90DFA0DF90DFB
:100B9000FA0DF90DFA0DF90DFA0DE030F9057708A7
:100BA000A0047808A1047908A2047A08A304352EC9
:100BB0000230FD020030031C0130FE027D0884007B
:100BC00083137E1883170008AB01AA01A901A800AE
:100BD000E039AC0029080039AD002A080039AE0020
:100BE0002B080039AF002F0CA3002E0CA2002D0CF7
:100BF000A1002C0CA000A30CA20CA10CA00CA30C17
:100C0000A20CA10CA00CA30CA20CA10CA00CA30C78
:100C1000A20CA10CA00C0730A3057D080319FE034C
:100C2000FD037D08840083137E1883170008AB0141
:100C3000AA01A901A800280DF700290DF8002A0D26
:100C4000F9002B0DFA00F70DF80DF90DFA0DF70D5F
:100C5000F80DF90DFA0DF830F7057708A0047808BB
:100C6000A1047908A2047A08A3042008F700210847
:100C7000F8002208F9002308FA007A088312AB0072
:100C80007908AA007808A9007708A8006B08E30093
:100C90003D086B0763020318642E6208FA006108BE
:100CA000ED006208EE0063088316AB0083125A2041
:100CB0006D08840083136E18831778088000E10A9A
:100CC0000319E20AE30A482EBE13EC1BBE17EC1F01
:100CD0006A2EEC133E1E6E2EEC106F2E6C102C3014
:100CE0008316AC0083126C088316AD008312B1200A
:100CF0000130F800F80803194C2FA808031D4C2FE9
:100D00002908033C031D4C2FAA08031D4C2FAB08D8
:100D1000031D4C2F83168610831286144008B400DE
:100D20004408B5004608B6004208B7004808B800B5
:100D30004908B9004A08BA00E401E3010330E200BF
:100D40000130E100E6013430E5000730E700013012
:100D5000E800E900EA0130308316AB0083125A2024
:100D60007808F40040308316AB0083125A207808CC
:100D7000F50050308316AB0083125A207808F60035
:100D8000F419CC2E3630ED003030EE003430EF0068
:100D90003530F100EC01E92EF519D92E4630ED0081
:100DA0004030EE004430EF004530F1000130EC00FF
:100DB000E92EF619E62E5630ED005030EE00543094
:100DC000EF005530F1000230EC00E92E0030F80061
:100DD0004C2F6E088316AB0083125A207808F2005D
:100DE00068080339F700FC3072057704F2006E08DA
:100DF0008316AC007208AD008312B1206F08FC00AE
:100E000064088316A300831263088316A20083126A
:100E100062088316A100831261088316A000831262
:100E20006908FD000E216708F30073136A18731731
:100E300071088316AC007308AD008312B1206D08F1
:100E4000EB0067086D076B0203183B2F6608FA007A
:100E5000650884008313661883170008FC006B087C
:100E60008316AC007C08AD008312B120E50A03199B
:100E7000E60AEB0A212F6E088316AB0083125A2074
:100E80007808F200F2156E088316AC007208AD0007
:100E90008312B1200130F8008A110A12A02F1F30EE
:100EA00083055030F7002030840083138001840ACA
:100EB0006400F70B562FF101F201F301F401F50183
:100EC000F601F801F901FA01FB01FC01FD01FE0147
:100ED0005030F700A030840083138001840A64003E
:100EE000F70B6D2F6030F7001030840083178001FE
:100EF000840A6400F70B772F83135930F700903082
:100F0000840083178001840A6400F70B822F831307
:100F1000A001840183131F30830583161F149F14BF
:100F20001F159F11073083129F00FF30BF00D42987
:100F30008316861083128610CD2A3C2BFB2B682C3F
:040F4000982FA12F16
:02400E00313748
:00000001FF
;PIC16F876A
