:10000000000018308A000028FF00030E8301A100C1
:100010000A08A0008A010408A2007708A300780853
:10002000A4007908A5007A08A6007B08A70083131E
:1000300083128B1D1D280B183C288C308400801ED9
:1000400023288C1A3F288C308400801C29288C1887
:100050004228220884002308F7002408F800250815
:10006000F9002608FA002708FB0020088A00210E64
:100070008300FF0E7F0E09008A110A12D12B8A110C
:100080000A12A02B8A110A12EA2A0A108A100A11EF
:10009000820728340C34013406340A108A100A11FD
:1000A00082070C3442344134543420343A342034FE
:1000B0005534253433347534203400340A108A1012
:1000C0000A1182070A34453443344C3420343A341C
:1000D000203400340A108A100A11820761346C340B
:1000E0006C3420346F346634663400340A108A105D
:1000F0000A1182076E34693476346534613475349C
:10010000203425343334753400340A108A100A112F
:10011000820762346C346F346334203431342034D9
:100120006F346E3400340A108A100A118207623468
:100130006C346F3463342034323420346F346E3492
:1001400000340A108A100A11820762346C346F344A
:1001500063342034333420346F346E3400340A1066
:100160008A100A11820762346C346F34633420348D
:10017000343420346F346E3400340A108A100A117B
:1001800082070A34433468343A34203425347534D1
:1001900000340A108A100A118207463475343A3442
:1001A00020342534753400340A108A100A1182076D
:1001B00045346D343A3420342534753400340A1013
:1001C0008A100A1182070C34703461347634653435
:1001D0003A3420346F34663466340A3400340A10FA
:1001E0008A100A1182070C34703461347634653415
:1001F0003A3420346F346E340A3400340A148A10CE
:100200000A1182076E34693476346534613475348A
:100210003A342034203425343334753400340A140D
:100220008A100A1182070C3462346C346F346334E0
:10023000203431343A3420346F346E340A3400348C
:100240000A148A100A1182070C3462346C346F3439
:100250006334203432343A3420346F346E340A3408
:1002600000340A148A100A1182070C3462346C3488
:100270006F346334203433343A3420346F346E3482
:100280000A3400340A148A100A1182070C346234CA
:100290006C346F346334203434343A3420346F3463
:1002A0006E340A3400340A148A100A1182070C349E
:1002B0004D3441345434203445344C344534433483
:1002C000543452344F344E34493451345534453417
:1002D00000340A148A100A1182070A345634313461
:1002E0002E3430342034303431342034323430340D
:1002F000303435340A3400340A148A100A11820763
:100300000C345334453444342D34503441344E3459
:1003100053344F344C3435343034573400340A14A9
:100320008A100A1182070A344234433441344E346D
:100330002D344D34413454342034563431342E3439
:1003400030340A3400340A148A100A1182070C343B
:100350004D346F346434653420346134753474340E
:100360006F346D3461347434693471347534653488
:1003700000340A148A100A1182070A3450344134B6
:100380004E3453344F344C342034563431342E34BC
:1003900030340A3400340A148A100A1182070C34EB
:1003A00043346F3472347234653463347434693472
:1003B0006F346E3400340A148A100A1182070A342A
:1003C00061347A3469346D34753474340A340034E9
:1003D0000A148A100A1182070A3465346C346534B1
:1003E00076346134743469346F346E340A340034D2
:1003F0000000000000000A108A140A11023E0318CF
:100400008A0A82000C345034613472346B3469349B
:100410006E34673400340A108A140A1182070A34D1
:1004200065346E34203463346F347534723473340D
:100430000A3400340A108A140A1182070C344D342D
:100440006F346434653420346D3461346E34753403
:1004500065346C3400340A108A140A1182070C3493
:100460004D346F346434653420343F3400340A1022
:100470008A140A1182070A34633468346F34693489
:100480007834203423342034343420343534003468
:100490000A108A140A1182070C34453463346C3410
:1004A00061346934723461346734653420343F34E4
:1004B00000340A108A140A1182070A34633468343B
:1004C0006F34693478342034233420343234613446
:1004D000393400340A108A140A1182070C3441346A
:1004E000663466346934633468346134673465343F
:1004F00020343F3400340A108A140A1182070A3467
:10050000633468346F3469347834203423342034CD
:1005100034346134383400340A108A140A118207E2
:100520000C344D346F347434653475347234203483
:100530003F3400340A108A140A1182070A346334E3
:1005400068346F34693478342034233420343134BF
:1005500020343234203436346134393400340A10D3
:100560008A140A1182070C3443346F3472347234A3
:1005700065346334743469346F346E3420343F34FA
:1005800000340A108A140A1182070A34633468346A
:100590006F346934783420342334203431342034B7
:1005A00000341030F700FA010317A701A40CA30CC4
:1005B000031CE02A2508FA070318A70A2608A7073C
:1005C000A70CFA0CF90CF80CF70BD62A03138A11B6
:1005D0000A12722BEE0A0319EF0A6E08613C031D22
:1005E000012BEF08031D012BF50A0319F60AF60883
:1005F000031DFE2A7508053C0318012B5316F6014E
:10060000F5016E08613C031D1B2BEF08031D1B2B1E
:10061000ED181B2B8316A20A0319A30AA308031DB6
:10062000152B22080A3C03181A2B83126D1583160A
:10063000A301A20183126E08613C031D2F2BEF085A
:10064000031D2F2BFC0A0319FD0AFD08031D2C2B8B
:100650007C08043C03182F2BD316FD01FC016E0807
:10066000613C031D472BEF08031D472B8316A00A8F
:100670000319A10AA108031D412B2008073C0318F8
:10068000462B831253178316A101A0018312ED1884
:100690005A2BF10A0319F20A7208063C03185A2B66
:1006A000FF3A031D572B7108A63C03185A2B6D14F3
:1006B000F201F1016E08613C031D812BEF08031D5F
:1006C000812B500B812BF30A0319F40A0317A401A1
:1006D000031351080317A3000230A6005830A500E9
:1006E0000313D12A7908FA007A087402031C812BBB
:1006F000031D7E2B730878020318812BD317F40196
:10070000F3016E08613C031D8E2BEF08031D8E2B39
:10071000EF01EE0183168610831286108C108A1169
:100720000A1229288C1E922B1808A8001A08F80013
:10073000A81C9C2B1812181600008A110A12A12B53
:10074000922B78080317A800A8080319AE2BA43031
:100750007E078400831328088000FE0A28080D3CC9
:10076000031DC52B7E08A9002908313C031CBF2BA3
:10077000A4302907840083138001A90AB42BFE0149
:100780000313ED15D40ACA2B03177E08313C031955
:10079000FE01031383168C1683128C128A110A121F
:1007A00029288316861683120317B0010313861EA9
:1007B000DC2B0317B00A03130317B008031D2B2CFF
:1007C00003136C156C088316870083120317AC01A2
:1007D0000313071DEE2B0317AC0A0313EC146C086C
:1007E0008316870083120317AD010313871CFB2BAD
:1007F0000317AD0A03138316061583120317AE0100
:100800000313061D062C0317AE0A031383160616E0
:1008100083120317AF010313061E112C0317AF0A2F
:100820000313031003172D0D2C07B1002E0DF70035
:10083000F70DFC30F70577083107B2002F0DF700F0
:10084000F70DF70DF830F705770832078316031315
:10085000D8008312031703130B108A110A122928D8
:10086000DB3084008313000803193C2CCF30F700E1
:10087000F70B382C800B362C0034831666080F39A2
:10088000F700F03083120505770485000000831619
:100890000512831205160000831605128312051235
:1008A00000346C106C088316870083120710D03058
:1008B000F700F70B592C8316E3080319682C8312F1
:1008C0006C106C0883168700831207146F2C831634
:1008D00083126C106C0883168700831207100000C7
:1008E0008316851283128512000083160512831267
:1008F00005128316640EE5000F30E5056508E60075
:1009000083123D24831664080F39E500E600831244
:100910003D2400340C1E8A2C831663088312990030
:100920000034531DD52C83165D08DE005E080C3A9A
:1009300083120319A22C063A0319AD2C023A0319AB
:10094000C62CCD2C8316E3010130E4008312512420
:10095000D030F700F70BAA2CD52C01308316DF001E
:100960000230E000600BB52CB82C4030E100B92C0F
:10097000E10101305F02E10761088038E200E30134
:100980006208E400831251240000D52C8316E30191
:100990001030E40083125124D52C01308316E3007B
:1009A0005E08E40083125124D52CD31DE52C831658
:1009B0005D080A3C031DE12C0D30E30083128A24FC
:1009C00083165D08E30083128A2400348316DA015B
:1009D0005A08313C031CF32CA4305A0784008313BB
:1009E0008001DA0AE82C83120034033003179D00DB
:1009F0001B089C00831603138611831286110317AC
:100A00009E011E080F3C031C242D03109C0D9D0D00
:100A100003180E2D03138712102D031703138716C7
:100A2000EC126C08831687008312EC116C08831695
:100A3000870083128715EC116C08831687008312D8
:100A4000871103179E0A012D9E011E08073C031CF7
:100A5000462D03136C166C08831687008312071A41
:100A6000332D0310342D031403179F0D0313EC11C2
:100A70006C088316870083128715EC116C088316A7
:100A800087008312871103179E0A252D83160313EF
:100A900086118312861503171F08F800031300340C
:100AA00002300317A0001C089F001D089E0083163B
:100AB00003138611831286110317A1012108173C25
:100AC000031C822D03109E0D9F0DA00D03186C2D8D
:100AD000031387126E2D031703138716EC126C088D
:100AE000831687008312EC116C088316870083122B
:100AF0008715EC116C088316870083128711031782
:100B0000A10A5E2D83160313861183128615003405
:100B10000F3003179B000313F52478088316DB00BE
:100B20005A0E7039F7000310F70D1F305B0577047C
:100B3000DB000F30831203179C00831603135B083E
:100B4000831203179D00031350250F3003179B00DA
:100B50000313F52478088316DB005B08F700F70E13
:100B6000770C07395A020319B72D8312A52D83126A
:100B70000034013003179A001830990094080319C3
:100B80001A2E1908840083131A188317100880007E
:100B9000190803199A0399031908840083131A1872
:100BA000831711088000190803199A03990319087B
:100BB000840083131A188317120803398000190858
:100BC000840083131A1883171208F700F70DF70D26
:100BD000F70DF830F7057708E039000480001908B0
:100BE000840083131A188317000808388000190836
:100BF00003199A0399031908840083131A18831799
:100C00001208F700F70EF70C0730F70577080739D9
:100C100080001908840083131A1883171308F7003B
:100C2000F70DF70DF70DF830F7057708F8390004E0
:100C300080005E2E1908840083131A188317800120
:100C4000190803199A0399031908840083131A18C1
:100C500083178001190803199A039903190884005E
:100C600083131A1883171008F700F70EF70DE030FA
:100C7000F7057708E0398000190803199A039903EA
:100C80001908840083131A1883171008F700F70C4B
:100C9000F70CF70C1F30F70577081F39800019088B
:100CA000840083131A1883171108F700F70EF70D45
:100CB000E030F7057708E03900048000831603135D
:100CC0006F08EF03831203179B009C0018089D0018
:100CD0000313502583166F08EF03831203179B003D
:100CE0009C0017089D000313502583166F08EF031F
:100CF000831203179B009C0016089D0003135025C8
:100D000083166F08831203179C0015089D000313B8
:100D100050250034303003179B000313F524780866
:100D20008316EC004030831203179B000313F52455
:100D300078088316ED005030831203179B000313CD
:100D4000F52478088316EE00EC19B02E3630E60054
:100D50003030E7003430E8003530E900E501CD2ED1
:100D6000ED19BD2E4630E6004030E7004430E80083
:100D70004530E9000130E500CD2EEE19CA2E56307F
:100D8000E6005030E7005430E8005530E90002300A
:100D9000E500CD2E0030F800582F670883120317A6
:100DA0009B000313F52478088316EA0061080339D1
:100DB000F700FC306A057704EA006708831203171E
:100DC0009C00831603136A08831203179D00031304
:100DD000502583166808EF005D08831203179300FF
:100DE000831603135C088312031792008316031300
:100DF0005B08831203179100831603135A088312AA
:100E000003179000831603136208831203179400DC
:100E10000313B92583166008EB006B1363186B1777
:100E20006908831203179C00831603136B0883124F
:100E300003179D000313502583166608E40060081D
:100E40006607640203183F2F5F08FA005E088400FB
:100E500083135F1883170008EF00640883120317D9
:100E60009C00831603136F08831203179D0003135E
:100E700050258316DE0A0319DF0AE40A1F2F6708CC
:100E8000831203179B000313F52478088316EA00E6
:100E9000EA156708831203179C00831603136A0878
:100EA000831203179D00031350250130F8008316A9
:100EB000831200344708E1004808E2004508E300D7
:100EC0004608E4004B08E5004A08E6008316DD0109
:100ED000DC010430DB000230DA00DF016130DE00CB
:100EE0000630E0000130E100E200E30183128A26CF
:100EF00000348316DA015A088312F8218316DA0ABD
:100F0000F700DD0083129124083083165A02031D76
:100F10007B2FDA015A0883120B228316DA0AF700B4
:100F2000DD00831291240A3083165A02031D8A2F92
:100F3000831200348316DA015A088312A321831620
:100F4000DA0AF700DD0083129124113083165A0269
:100F5000031D9C2FDA015A088312B9218316DA0A7D
:100F6000F700DD00831291240D3083165A02031D11
:100F7000AB2F831200348316DA015A0883121A2227
:100F80008316DA0AF700DD00831291240C308316F1
:100F90005A02031DBD2FDA015A088312B9218316A4
:100FA000DA0AF700DD00831291240D3083165A020D
:100FB000031DCC2F831200343F08E1004008E200FB
:100FC0008316DD01DC010230DB00DA01DF01613074
:100FD000DE000230E0000130E100E200E3018312B4
:040FE0008A26003429
:10100000531500308316850083126C106C0883160C
:1010100087008312071083168512831285128316A8
:101020000512831205120F308316DB008A1183121A
:1010300030248A1501308316D9005908033C031C5B
:1010400031280330E6008A1183123D248A150530C9
:101050008316DB008A11831230248A158316D90A7D
:101060001D280230E6008A1183123D248A1583165A
:10107000D9015908033C031C4E2859088A118312D0
:1010800045208A158316DA00E3015A08E4008A1124
:10109000831251248A158316D90A392883126D16B2
:1010A0008316D90159088A11831253218A15831690
:1010B000D90AF700DD008A11831291248A151130B4
:1010C00083165902031D5228D90159088A11831227
:1010D00069218A158316D90AF700DD008A11831267
:1010E00091248A150E3083165902031D6528083095
:1010F000D900FA30DB008A11831230248A15831656
:10110000D90B7928D90159088A1183127C218A15B3
:101110008316D90AF700DD008A11831291248A15FB
:101120000E3083165902031D8328D90159088A11EC
:1011300083128F218A158316D90AF700DD008A11E0
:10114000831291248A150F3083165902031D9628A5
:101150000830D900FA30DB008A11831230248A1556
:101160008316D90BAA280000FE018312ED118A1103
:10117000E6248A1583168C16861183128615EC11C7
:101180006C088316870083128711C0308316DA003B
:101190008611831286118316DB015B08073C031C52
:1011A000EF280310DA0D0318D92883128712DB28E1
:1011B000831683128716EC126C088316870083123D
:1011C000EC116C088316870083128715EC116C08EC
:1011D00083168700831287118316DB0ACD288611B8
:1011E0008312861505308316DB008A1183123024A2
:1011F0008A15000004308316DA008A1183128825CC
:101200008A15C03083165A050438DA003F305A0573
:10121000DA00F8305B050238DB00C7305B052838A0
:10122000DB005B13DB17F8305C050538DC005C1372
:101230002A30831203179C00831603135A08831263
:1012400003179D008A11031350258A1529300317AF
:101250009C00831603135B08831203179D008A11F9
:10126000031350258A15283003179C008316031397
:101270005C08831203179D008A11031350258A15F9
:1012800000008316D9019F305905D90059156030E7
:10129000831203179C008316031359088312031744
:1012A0009D008A11031350258A15703003179C0086
:1012B000831603135908831203179D008A11031321
:1012C00050258A1523308316EF00831203179301EC
:1012D000920191019001013094008A110313B92504
:1012E0008A1503308316EF008312031793019201CE
:1012F00091019001013094008A110313B9258A15D8
:1013000007308316EF0083120317930192019101B6
:101310009001013094008A110313B9258A152730F2
:101320008316EF008312031793019201910190013C
:10133000013094008A110313B9258A150B308316E6
:10134000EF00831203179301920191019001013084
:1013500094008A110313B9258A1513308316EF0000
:1013600083120317930192019101900101309400BF
:101370008A110313B9258A1517308316EF008312DB
:1013800003179301920191019001013094008A1199
:101390000313B9258A151B308316EF008312031738
:1013A0009301920191019001013094008A1103137D
:1013B000B9258A158316DA018A11831288258A15C0
:1013C000000053140430D2000F30D1000130D0009F
:1013D0008316D6018312CA008A115A278A15CA01B8
:1013E0002030F800063892000830831692008C14E2
:1013F000C03083128B048B1583168C1683128A15CA
:101400000A165328531C842E531E182A8316DD01F6
:10141000DC010130DB00DA01DF01DE01E001E10087
:10142000E200E3008A1183128A268A150000531213
:10143000531F2D2A8316DD01DC010430DB00DA01A5
:10144000DF01DE01E0010130E100E200E3008A118A
:1014500083128A268A1500005313D31E422A83164C
:10146000DD01DC010330DB00DA01DF01DE01E00138
:101470000130E100E200E3008A1183128A268A1516
:101480000000D3122A0CFA00290CF900FA0CF90C0E
:101490007908B1002C0CFA002B0CF900FA0CF90CAD
:1014A0007908B2002E0CFA002D0CF900FA0CF90C98
:1014B0007908B300300CFA002F0CF900FA0CF90C83
:1014C0007908B4008316DA01831231088316D90033
:1014D000831232088316D9070318DA0A83123308F5
:1014E0008316D9070318DA0A831234088316D9073A
:1014F0000318DA0A5A0CFA00590CF900FA0CF90C24
:1015000079088312B500B601B70101302F07F80042
:101510003008FA000318FA0A7A082E02031C9C2AE3
:10152000031D962A2D08780203189C2A2F082D02E5
:10153000B7000230C500B22A01302D07F8002E088E
:10154000FA000318FA0A7A083002031CB22A031DB3
:10155000AD2A2F0878020318B22A2D082F02B700EF
:101560000130C50001302B07F8002C08FA000318E1
:10157000FA0A7A082A02031CC92A031DC32A290869
:1015800078020318C92A2B082902B6000230C700C6
:10159000DF2A01302907F8002A08FA000318FA0A9E
:1015A0007A082C02031CDF2A031DDA2A2B08780292
:1015B0000318DF2A29082B02B6000130C700D31F09
:1015C000672B3508643C0318672B36085202031852
:1015D000212B360837020318212B0130C800C50122
:1015E0008A115A278A158316D90159088A1183123C
:1015F000CB218A158316D90AF700DD008A118312E0
:1016000091248A150B3083165902031DF52AD9013E
:1016100059088A118312DB218A158316D90AF7002B
:10162000DD008A11831291248A150830831659022D
:10163000031D082BC830DB008A11831230248A1561
:10164000582B370852020318582B0130C600C70127
:101650008A115A278A158316D90159088A118312CB
:10166000CB218A158316D90AF700DD008A1183126F
:1016700091248A150B3083165902031D2D2BD90195
:1016800059088A118312E8218A158316D90AF700AE
:10169000DD008A11831291248A150B3083165902BA
:1016A000031D402BC830DB008A11831230248A15B9
:1016B000520837020318672B520836020318672BAB
:1016C000D3130130CB008A115A278A15CB01D31FBF
:1016D000872B3508633C031C872B4D08003C0318FF
:1016E000872BFF3A031D782B4C080D3C0318872BE2
:1016F000D3138A1179278A15C701C801C501C6010C
:10170000CB010130CA008A115A278A15CA012C3030
:1017100003179B008A110313F5248A157808831692
:10172000D9005918952BD91C982B0130F8009A2B09
:101730000030F800F8080319822EDA015930D90078
:101740002C30831203179B008A110313F5248A158A
:1017500078088316E4006030831203179B008A1117
:101760000313F5248A1578088316DC007030831281
:1017700003179B008A110313F5248A157808831632
:10178000DD002D30831203179B008A110313F5240B
:101790008A1578088316DE00641CFD2B83126B12F9
:1017A0006B1083165E1FD72B83126B1483165E1388
:1017B0002D30831203179C00831603135E088312D7
:1017C00003179D008A11031350258A1583165C1D8B
:1017D000F62B00305C1801300739F7000310F70DC5
:1017E000F13083126B057704EB0083166530DF0060
:1017F0006230E1006630E3002E2CE41C2B2C8312B7
:101800006B166B108316DE1F082C83126B14831665
:10181000DE132D30831203179C00831603135E081A
:10182000831203179D008A11031350258A1583160E
:101830005D0807390739F7000310F70DF1308312FF
:101840006B057704EB0075308316DF007230E10022
:101850007630E3002E2C0030F800122E5F08831241
:1018600003179B008A110313F5248A157808831641
:10187000E00060080F398312EA00EB128316601F44
:10188000442C8312EB1683166108831203179B0006
:101890008A110313F5248A1578088316E20083124F
:1018A0006B138316E21D572C83126B1783160230BD
:1018B0006107E500003083126B1B01308316E600E0
:1018C0006508ED006608EE000130831203179500ED
:1018D00019309400831603136D08ED038312031768
:1018E0009A009B008A110313F5248A1578080317C0
:1018F0009900831603136D08ED03831203179A00F2
:101900009B008A110313F5248A15780803179800A1
:10191000831603136D08ED03831203179A009B00CF
:101920008A110313F5248A15780803179700831684
:1019300003136D08831203179B008A110313F52408
:101940008A1578080317960093019201910190017E
:1019500083160313EE080319582D83120317150875
:10196000FA00140884008313151883170008F70081
:10197000F801F901FA017A089300790892007808D1
:101980009100770890001408031995039403140834
:10199000840083131518831700089D019C019B0187
:1019A0009A00F701770890041A0891041B08920422
:1019B0001C08930414080319950394031408840065
:1019C00083131518831700089D019C019B019A0041
:1019D00003399E001B0800399F001C080039A00035
:1019E0001D080039A100F701F80177089004780874
:1019F00091041E0892041F089304140884008313A2
:101A00001518831700089D019C019B019A00E0397D
:101A10009E001B0800399F001C080039A0001D080B
:101A20000039A100F7011E0DF8001F0DF900200D6F
:101A3000FA00F80DF90DFA0DF80DF90DFA0DF80D83
:101A4000F90DFA0DF80DF90DFA0DE030F8057708EB
:101A5000900478089104790892047A089304140891
:101A6000031995039403140884008313151883172E
:101A700000089D019C019B019A00F701F8011A0DD5
:101A8000F9001B0DFA00F90DFA0DF90DFA0DF90D1B
:101A9000FA0DF90DFA0DE030F90577089004780891
:101AA0009104790892047A089304B72D83160313DE
:101AB00002308312031794020030031C0130950298
:101AC0001408840083131518831700089D019C01D6
:101AD0009B019A00E0399E001B0800399F001C08FA
:101AE0000039A0001D080039A100210C9300200C32
:101AF00092001F0C91001E0C9000930C920C910C04
:101B0000900C930C920C910C900C930C920C910CE9
:101B1000900C930C920C910C900C073093051408C8
:101B2000031995039403140884008313151883176D
:101B300000089D019C019B019A001A0DF7001B0DE6
:101B4000F8001C0DF9001D0DFA00F70DF80DF90D48
:101B5000FA0DF70DF80DF90DFA0DF830F7057708C5
:101B6000900478089104790892047A089304100884
:101B7000F7001108F8001208F9001308FA007A08B3
:101B80000313D8007908D7007808D6007708D50065
:101B900083166308DB0083126A08831663075B02FF
:101BA0000318ED2D5A08FA005908E5005A08E60016
:101BB0005B08831203179B008A110313F5248A150F
:101BC00083166508840083136618831778088000DD
:101BD000D90A0319DA0ADB0ACB2D8312EB13831619
:101BE000E41FF52D8312EB178316E41FF82DE41381
:101BF00083126B1EFF2D8316E410012E83128316B1
:101C000064102C30831203179C008316031364089E
:101C1000831203179D008A11031350258A15013082
:101C2000F8008316F8080319822E86108312861492
:101C3000550B3E2E560B3E2ED708031D3E2ED808C0
:101C4000031D3E2E5908AA00A9015A08A907031826
:101C5000AA0A5B08AC00AB015C08AB070318AC0A2E
:101C60005D08AE00AD015E08AD070318AE0A5F085F
:101C7000B000AF016008AF070318B00A550B582E2B
:101C80005608033C031D582ED708031D582ED808AC
:101C9000031D582E5908B8005A08BA005B08BB004B
:101CA0005C08B9005D08BC005E08BD005F08BE00AE
:101CB000550B812E5608043C031D812ED708031DA9
:101CC000812ED808031D812E5908C1005A08C20070
:101CD0005B08C3005C08C4005D08C900CD015E0854
:101CE000CC005F08CE006008CF004E08633C0318AC
:101CF000812E0E30CC070318CD0A0130CD07643099
:101D0000CE02831600008312D31C862E8A150A1673
:101D1000592883165E08F8015D020318922E5D08AB
:101D2000F7009E2EF7010830DF00DD0DF70D5E088D
:101D300077020318F700F80DDF0B952E831200349D
:101D4000780883165B08DD006430DE008312892684
:101D500077088316DB0078083030031DB62E5C1838
:101D6000C02EDC19C02E5C1A2030B82EDC115C129B
:101D7000F8077808DD008A11831291248A158316EA
:101D80005B08DD000A30DE0083128926770883169F
:101D9000DB0078083030031DD12EDC19D92E5C1AF7
:101DA0002030F8077808DD008A11831291248A1503
:101DB00083163030DB075B08DD008A118312912423
:101DC0008A150034BF08031DFA2E8316DA015A085B
:101DD0008A118312DF208A158316DA0AF700DD00E4
:101DE0008A11831291248A150B3083165A02031D1F
:101DF000E72E83123F0B2B2F8316DA015A088A1124
:101E00008312EF208A158316DA0AF700DD008A11A3
:101E1000831291248A150A3083165A02031DFE2E5E
:101E2000DA015A088A118312FE208A158316DA0A0B
:101E3000F700DD008A11831291248A150930831678
:101E40005A02031D112F831240088316DB00103045
:101E5000DC008312A0263F08023C031D442F83169A
:101E6000DA015A088A1183120F218A158316DA0AB9
:101E7000F700DD008A11831291248A150C30831635
:101E80005A02031D312F83123F08033C031D5D2FAF
:101E90008316DA015A088A11831220218A158316C3
:101EA000DA0AF700DD008A11831291248A150C30BA
:101EB00083165A02031D4A2F83123F08043C031D58
:101EC000762F8316DA015A088A11831231218A1576
:101ED0008316DA0AF700DD008A11831291248A152D
:101EE0000C3083165A02031D632F83123F08053CF2
:101EF000031D8F2F8316DA015A088A11831242219B
:101F00008A158316DA0AF700DD008A1183129124FC
:101F10008A150C3083165A02031D7C2F831200345D
:101F2000F701F80183165C0803105D18F707F70C3A
:101F3000F80CDD18F707F70CF80C5D19F707F70C2C
:101F4000F80CDD19F707F70CF80C5D1AF707F70C1A
:101F5000F80CDD1AF707F70CF80C5D1BF707F70C08
:101F6000F80CDD1BF707F70CF80C8312003483160E
:101F7000DB1BCE2F0F30F7005A0EF7050A30770221
:101F80000318C52F3030F707C72F5B08F70777080E
:101F9000E3008A1183128A248A1583160F30DA052A
:101FA0000A305A020318D62F3030D82FDB135B08C3
:101FB000DA075A08E3008A1183128A248A1500344A
:102000008316590B1D2883125314D3108316D6013F
:102010000A1283129A270A1602308316DA00FA305F
:10202000DB000A12831230240A168316DA0B0F28FB
:102030008312ED10ED130A2A83165908023C031D82
:102040003C2883125310D31401308316D6000A1291
:102050008312BB270A1602308316DA00FA30DB003F
:102060000A12831230240A168316DA0B2E288312E2
:10207000ED10ED130A2A83165908033C031D5B2853
:102080008312BF010A12DC270A160A128A15E226F9
:102090000A168A1102308316DA00FA30DB000A12BF
:1020A000831230240A168316DA0B4D288312ED10A2
:1020B0008316D7100B2A5908043C031D7B280130D6
:1020C0008312BF000A12DC270A160A128A15E226BA
:1020D0000A168A1102308316DA00FA30DB000A127F
:1020E000831230240A168316DA0B6D288312ED1042
:1020F0008316D7100B2A5908053C031D9F2883120D
:1021000040080F3C031986280330C0070A12DC2759
:102110000A160A128A15E2260A168A110230831656
:10212000DA00FA30DB000A12831230240A16831612
:10213000DA0B91288312ED108316D7100B2A590859
:10214000063C031DC2288312C0080319A9280330C6
:10215000C0020A12DC270A160A128A15E2260A169B
:102160008A1102308316DA00FA30DB000A12831279
:1021700030240A168316DA0BB4288312ED10831666
:10218000D7100B2A5908073C031DE228023083129E
:10219000BF000A12DC270A160A128A15E2260A165E
:1021A0008A1102308316DA00FA30DB000A12831239
:1021B00030240A168316DA0BD4288312ED10831606
:1021C000D7100B2A5908083C031D0229033083123B
:1021D000BF000A12DC270A160A128A15E2260A161E
:1021E0008A1102308316DA00FA30DB000A128312F9
:1021F00030240A168316DA0BF4288312ED108316A6
:10220000D7100B2A5908093C031D222904308312D8
:10221000BF000A12DC270A160A128A15E2260A16DD
:102220008A1102308316DA00FA30DB000A128312B8
:1022300030240A168316DA0B14298312ED10831644
:10224000D7100B2A59080A3C031D42290530831276
:10225000BF00ED108316D7100A128312DC270A166E
:102260000A128A15E2260A168A1102308316DA004B
:10227000FA30DB000A12831230240A168316DA0BB6
:1022800038290B2A59080B3C031D4D290230D60072
:102290008312ED10831657100B2A59080C3C031DAE
:1022A00058290330D6008312ED10831657100B2ADD
:1022B00059080D3C031D63290430D6008312ED102C
:1022C000831657100B2A59080E3C031D6E29053042
:1022D000D6008312ED10831657100B2A59080F3CB5
:1022E000031D79290130D6008312ED108316571093
:1022F0000B2A5908103C031D91298312D3130A128B
:1023000079270A16C701C801C501C601CB010130F2
:10231000CA000A125A270A16CA01ED10831657116D
:102320000B2A5908113C031DA52901308312C7004F
:102330000530C800C501C601CB01CA010A125A27DF
:102340000A16ED10831657110B2A5908123C031D6B
:10235000B92902308312C7000530C800C501C60183
:10236000CB01CA010A125A270A16ED10831657111B
:102370000B2A5908133C031DCD298312C701C8013C
:102380000130C5000530C600CB01CA010A125A2728
:102390000A16ED10831657110B2A5908143C031D19
:1023A000E1298312C701C8010230C5000530C6000B
:1023B000CB01CA010A125A270A16ED1083165711CB
:1023C0000B2A5908153C031DF5298312C701C801C2
:1023D000C501C6010130CB00CA010A125A270A16EC
:1023E000CB01ED10831657110B2A5908163C031D1B
:1023F000FF298312D317ED108316D7110B2A590822
:10240000173C031D0B2A5710D7115711D7108312F1
:10241000ED13ED108316831200340C308316DD00AB
:102420000A12831291240A164F308316DD000A1215
:10243000831291240A1632088316DB001030DC0068
:102440000A128A158312A0260A168A1145308316AD
:10245000DD000A12831291240A1631088316DB006C
:102460001030DC000A128A158312A0260A168A117F
:102470004E308316DD000A12831291240A163308A7
:102480008316DB001030DC000A128A158312A026A6
:102490000A168A1153308316DD000A128312912422
:1024A0000A1634088316DB001030DC000A128A1585
:1024B0008312A0260A168A110A308316DD000A123A
:1024C000831291240A164D308316DD000A128312FE
:1024D00091240A1635088316DB001030DC000A123E
:1024E0008A158312A0260A168A1120308316DD0071
:1024F0000A12831291240A1645308316DD000A124F
:10250000831291240A1641308316DD000A128312C9
:1025100091240A1636088316DB001030DC000A12FC
:102520008A158312A0260A168A1120308316DD0030
:102530000A12831291240A1645308316DD000A120E
:10254000831291240A1645308316DD000A12831285
:1025500091240A1637088316DB001030DC000A12BB
:102560008A158312A0260A168A110A308316DD0006
:102570000A12831291240A1600340C308316DD00EF
:102580000A12831291240A1642308316DD000A12C1
:10259000831291240A1639088316DB001030DC0000
:1025A0000A128A158312A0260A168A11533083163E
:1025B000DD000A12831291240A163B088316DB0001
:1025C0001030DC000A128A158312A0260A168A111E
:1025D00050308316DD000A12831291240A1638083F
:1025E0008316DB001030DC000A128A158312A02645
:1025F0000A168A1145308316DD000A1283129124CF
:102600000A163A088316DB001030DC000A128A151D
:102610008312A0260A168A118316D90159080A12B4
:102620008312BD200A168316D90AF700DD000A12AC
:10263000831291240A16053083165902031D0E2BAE
:1026400083123C088316DB001830DC000A128A155E
:102650008312A0260A168A118316D90159080A1274
:102660008312C9200A168316D90AF700DD000A1260
:10267000831291240A16043083165902031D2E2B4F
:1026800083123D088316DB001830DC000A128A151D
:102690008312A0260A168A118316D90159080A1234
:1026A0008312D4200A168316D90AF700DD000A1215
:1026B000831291240A16043083165902031D4E2BEF
:1026C00083123E088316DB001830DC000A128A15DC
:1026D0008312A0260A168A1100346D1DA22C8316BF
:1026E0005608FA3E0318A02C063E8312A52C83162A
:1026F000D90159080A1283124D200A168316D90AE5
:10270000F700DD000A12831291240A16083083169E
:102710005902031D792B831239088316DB00103010
:10272000DC000A128A158312A0260A168A112030AC
:102730008316DD000A12831291240A16493083168B
:10274000DD000A12831291240A163B088316DB006F
:102750001030DC000A128A158312A0260A168A118C
:1027600020308316DD000A12831291240A16831684
:10277000D90159080A1283125E200A168316D90A53
:10278000F700DD000A12831291240A16073083161F
:102790005902031DB92B8312BF08031DE42B8316B6
:1027A000D90159080A1283126A200A168316D90A17
:1027B000F700DD000A12831291240A1607308316EF
:1027C0005902031DD12B83123F0B062C8316D9010E
:1027D00059080A12831276200A168316D90AF700BE
:1027E000DD000A12831291240A160730831659025B
:1027F000031DE82B831240088316DB001030DC0039
:102800000A128A158312A0260A168A113F08023C72
:10281000031D1F2C8316D90159080A128312852023
:102820000A168316D90AF700DD000A1283129124D2
:102830000A16093083165902031D0C2C83123F0817
:10284000033C031D382C8316D90159080A12831240
:1028500093200A168316D90AF700DD000A128312A4
:1028600091240A16093083165902031D252C831260
:102870003F08043C031D512C8316D90159080A1244
:102880008312A1200A168316D90AF700DD000A1266
:10289000831291240A16093083165902031D3E2C17
:1028A00083123F08053C031D6A2C8316D901590881
:1028B0000A128312AF200A168316D90AF700DD0028
:1028C0000A12831291240A16093083165902031D35
:1028D000572C83128316A02C6D1C842C6D1E742C17
:1028E0000D226D12ED16832CED1E7A2CBD22ED12F9
:1028F0006D17832C6D1F832C0A128A15E2260A1687
:102900008A116D136D166D108316A02CBD228316CF
:10291000A02C0D228316A02C0A128A15E2260A1674
:102920008A118316A02C531C992C0A129A270A1676
:102930009C2C0A12BB270A1600008316A02C8316B3
:1029400083126D118A150A16A22A0A108A100A1516
:102950008207772B6C2C862C892C8C2C932C780856
:1029600083165A08DD006430DE000A128A158312CD
:1029700089260A168A1177088316DA00780830301B
:10298000031DC92C5B18D32CDB19D32C5B1A203008
:10299000CB2CDB115B12F8077808E3000A128312D4
:1029A0008A240A1683165A08DD000A30DE000A124D
:1029B0008A15831289260A168A1177088316DA0087
:1029C00078083030031DE82CDB19F02C5B1A20301E
:1029D000F8077808E3000A1283128A240A1683167D
:1029E0003030DA075A08E3000A1283128A240A16E2
:1029F00000348316E2010408E1006210831B6214B4
:102A00005B0EF038DD00DD07E23EDE00323EE00026
:102A10005B080F39DE07DE07E007E93EDF00DF076E
:102A2000DF075A0E0F39DF07E007DF0DE00DE00981
:102A3000E00D5A080F39E007DD0D0730DC000A30E1
:102A4000E007DF03031C202DDF07DE03031C242D1A
:102A5000DE07DD03031C282DDD07DC03031C2C2D02
:102A6000DC3084008313073061058407E030040202
:102A70000319602D0008F700031D442D611A5E2D17
:102A8000E119462D2030472D0830E1003030F7079E
:102A9000DB010408DA005B10831B5B147708DC00A1
:102AA0007708E3000A1283128A240A1683165A084A
:102AB000840083135B1883175C08F700840A362DA3
:102AC0000008F7003030F7077708E3000A12831296
:102AD0008A240A168A110A163F2FED1D802F8316AD
:102AE0002408453A83120319822D0F3A0319B02D99
:102AF000013A0319E72D073A0319212E1E3A03194B
:102B0000742E762F303083162502DB00DC000A306D
:102B1000DD000A128A15831290270A168A11780896
:102B20008316DC00303026025C078312BF00303091
:102B300083162702DB00DC000A30DD000A128A154A
:102B4000831290270A168A1178088316DC00303029
:102B500028025C078312C0000A12DC270A16762FAF
:102B6000C701C801CB01303083162502DB00DC0031
:102B70000A30DD000A128A15831290270A168A117C
:102B800078088316DC00303026025C078312C5000B
:102B9000303083162702DB00DC000A30DD000A1229
:102BA0008A15831290270A168A1178088316DC008A
:102BB000303028025C078312C600303083162902A9
:102BC0008312CA000A125A270A16CA01762FC501B3
:102BD000C601CB01303083162502DB00DC000A3051
:102BE000DD000A128A15831290270A168A117808C6
:102BF0008316DC00303026025C078312C7003030B9
:102C000083162702DB00DC000A30DD000A128A1579
:102C1000831290270A168A1178088316DC00303058
:102C200028025C078312C800303083162902831201
:102C3000CA000A125A270A164A0B1F2ED313CA01BA
:102C4000762F303083162502DB00DC000A30DD00F1
:102C50000A128A15831290270A168A117808831699
:102C6000DC00303026025C07D90030302702DB0060
:102C7000DC000A30DD000A128A15831290270A163A
:102C80008A1178088316DC00303028025C07831232
:102C9000D200303083162902DB00DC000A30DD0070
:102CA0000A128A15831290270A168A117808831649
:102CB000DC0030302A025C078312D1008316D90869
:102CC000031D652E8312D0018316590B6A2E8312C1
:102CD000D31783165908023C031D722E013083124C
:102CE000D00083168312762FFA308316DA0037303D
:102CF000DB000A128A158312B7270A168A113108D7
:102D00008316DA001030DB008312AF2432088316FA
:102D1000DA001030DB008312AF2433088316DA00A8
:102D20001030DB008312AF2434088316DA00103031
:102D3000DB008312AF2435088316DA001030DB0085
:102D40008312AF2436088316DA001030DB008312BA
:102D5000AF2437088316DA001030DB008312AF246B
:102D60008316DA013730DB000A128A158312B7277F
:102D70000A168A1138088316DA001030DB00831235
:102D8000AF2439088316DA001030DB008312AF2439
:102D90003A088316DA001030DB008312AF243B08B8
:102DA0008316DA001030DB008312AF243C08831650
:102DB000DA003730DB000A128A158312B7270A16A9
:102DC0008A113D088316DA003730DB000A128A15B3
:102DD0008312B7270A168A113E088316DA003730A5
:102DE000DB000A128A158312B7270A168A113F08D8
:102DF0008316DA001030DB008312AF2440088316FC
:102E0000DA001030DB008312AF2441088316DA00A9
:102E10001030DB008312AF2442088316DA00103032
:102E2000DB008312AF2443088316DA003730DB005F
:102E30000A128A158312B7270A168A1144088316C4
:102E4000DA003730DB000A128A158312B7270A1618
:102E50008A1149088316DA003730DB000A128A1516
:102E60008312B7270A168A11023084004D08831690
:102E7000DB0083124C088316DA008312F92C4E080B
:102E80008316DA001030DB008312AF244F0883165C
:102E9000DA003730DB000A128A158312B7270A16C8
:102EA0008A1150088316DA003730DB000A128A15BF
:102EB0008312B7270A168A1151088316DA001030D8
:102EC000DB008312AF2452088316DA001030DB00D7
:102ED0008312AF240D308316DA003730DB000A127C
:102EE0008A158312B7270A168A11762F0A12E6244A
:102EF0000A16ED11D40B802F0A12E6240A16ED11E2
:062F00008A150A16A52A3D
:103000001F3083055030F700203084008313800187
:10301000840A6400F70B0728F101F201F301F401BF
:10302000F501F601F801F901FA01FB01FC01FD01CE
:10303000FE015030F700A030840083138001840A21
:103040006400F70B1E286030F700103084008317EF
:103050008001840A6400F70B282883135930F70095
:103060009030840083178001840A6400F70B3328B2
:103070008313A001840183131F30830583161F145B
:103080009F141F159F11073083129F000330831672
:10309000990022309800903083129800A801FF30E8
:1030A000EC000A1200280A16831681130A128312F2
:1030B000022A0A16ED186E298316580B92288312DD
:1030C000ED148316D714D90159080A128A118312F4
:1030D00048220A168A158316D90AF700DD000A125B
:1030E0008A11831291240A168A150C30831659020C
:1030F000031D6428D90159080A128A118312592222
:103100000A168A158316D90AF700DD000A128A11F9
:10311000831291240A168A150C3083165902031D56
:103120007B286D295808023C031DC9288312ED1421
:10313000ED178316D90159080A128A1183122B221E
:103140000A168A158316D90AF700DD000A128A11B9
:10315000831291240A168A15073083165902031D1B
:103160009B28D90159080A128A11831237220A169C
:103170008A158316D90AF700DD000A128A11831214
:1031800091240A168A150C3083165902031DB228A1
:103190006D295808033C031D00298312ED14831682
:1031A0005714D90159080A128A1183126A220A1681
:1031B0008A158316D90AF700DD000A128A118312D4
:1031C00091240A168A150C3083165902031DD22841
:1031D000D90159080A128A1183127B220A168A150C
:1031E0008316D90AF700DD000A128A11831291248E
:1031F0000A168A150C3083165902031DE9286D2919
:103200005808043C031D37298312ED148316571503
:10321000D90159080A128A1183128C220A168A15BA
:103220008316D90AF700DD000A128A11831291244D
:103230000A168A15093083165902031D0929D90176
:1032400059080A128A1183129A220A168A158316BD
:10325000D90AF700DD000A128A11831291240A1696
:103260008A15103083165902031D20296D2958082C
:10327000053C031D6D298312ED148316D715D90162
:1032800059080A128A118312AF220A168A15831668
:10329000D90AF700DD000A128A11831291240A1656
:1032A0008A150D3083165902031D4029D90159088A
:1032B0000A128A118312C1220A168A158316D90AA4
:1032C000F700DD000A128A11831291240A168A156A
:1032D0000B3083165902031D57298312ED1C9D2ABA
:1032E00083165808043C031D82298312ED1B7A299A
:1032F0008316822901308316D9008A118312002097
:103300008A1583165808053C031D93298312ED1B6B
:103310008B298316932902308316D9008A118312D0
:1033200000208A1583165808023C031DA029D71CCB
:10333000A0290330D9008A11831200208A15831630
:103340005808033C031DAD29D71CAD290430D90012
:103350008A11831200208A1583165808043C031D25
:10336000BA29D71CBA290530D9008A118312002046
:103370008A1583165808053C031DC729D71CC72981
:103380000630D9008A11831200208A158316580846
:10339000063C031DD429D71CD4290730D9008A1133
:1033A000831200208A1583165808073C031DE12963
:1033B000D71CE1290830D9008A11831200208A1510
:1033C00083165808083C031DEE29D71CEE29093046
:1033D000D9008A11831200208A1583165808093CE7
:1033E000031DFB29D71CFB290A30D9008A1183123F
:1033F00000208A1583165808043C031D082A571C10
:10340000082A0B30D9008A11831200208A158316EE
:103410005808053C031D152A571C152A0C30D900E5
:103420008A11831200208A1583165808063C031D52
:10343000222A571C222A0D30D9008A11831200201B
:103440008A1583165808073C031D2F2A571C2F2A5C
:103450000E30D9008A11831200208A15831658086D
:10346000083C031D3C2A571C3C2A0F30D9008A1106
:10347000831200208A158316580B472A571D472AA6
:103480001530D9008A11831200208A158316580836
:10349000023C031D542A571D542A1030D9008A11AA
:1034A000831200208A1583165808063C031D612AE2
:1034B000571D612A1130D9008A11831200208A1504
:1034C00083165808073C031D6E2A571D6E2A1230BA
:1034D000D9008A11831200208A1583165808083CE7
:1034E000031D7B2A571D7B2A1330D9008A118312B2
:1034F00000208A1583165808093C031D882A571D89
:10350000882A1430D9008A11831200208A15831664
:10351000580B932AD71D932A1630D9008A1183128B
:1035200000208A15831658080C3C031D9E2A17306C
:10353000D9008A11831200208A158316D8018A11B6
:1035400083126D2B8A158A116D2D8A1583168C16A0
:043550005628A92A26
:02400E00313748
:00000001FF
;PIC16F876A
