:1000000000308A000F29000083168613831286179A
:100010002129123084008313000803191528CF30DA
:100020008C008C0B1128800B0F2809299201831654
:100030000510831205108316851083128510831610
:1000400005118312051183168511831285118316FC
:1000500005168312051E3628831686168312861E01
:100060003628831606168312061AF5289208031DF1
:10007000D628831605108312051083168510831267
:1000800085148316051183120515831685118312B5
:100090008515831605168312051A51280130920022
:1000A0006028831686168312861A59280230920019
:1000B0006028831606168312061A60280330920001
:1000C000831605108312051483168510831285107C
:1000D0008316051183120515831685118312851564
:1000E000831605168312051A782804309200872893
:1000F000831686168312861A802805309200872878
:10010000831606168312061A872806309200831675
:100110000510831205148316851083128514831627
:100120000511831205118316851183128515831617
:1001300005168312051A9F2807309200AE288316F1
:1001400086168312861AA72808309200AE288316D6
:1001500006168312061AAE2809309200831605107F
:1001600083120514831685108312851483160511D6
:1001700083120515831685118312851183160516C2
:100180008312051AC6280A309200D52883168616CF
:100190008312861ACE280B309200D52883160616B5
:1001A0008312061AD5280C309200362883160510C3
:1001B000831205108316851083128510831605118E
:1001C0008312051183168511831285118316051676
:1001D0008312051EF428831686168312861EF428C1
:1001E000831606168312061EE62812088D000D08D7
:1001F0009100910803190D2900308316860083129F
:100200001108860083168613831286131430920019
:1002100009288316861383128617910122291F301D
:10022000830543308C000D30840083138001840AE1
:1002300064008C0B1629A001840183131F308305F1
:0802400004281628212963009F
:00000001FF
;PIC16F84A
