:10000000000000308A00122FFF00030E8301A100C0
:100010000A08A0008A010408A2007708A300780853
:10002000A4007908A5007A08A6007B08A70083131E
:1000300083128C308400801E1F288C1A38288C3044
:100040008400801C25288C183B2822088400230863
:10005000F7002408F8002508F9002608FA00270808
:10006000FB0020088A00210E8300FF0E7F0E09008E
:100070008A110A12EC298A110A124F280A108A10D2
:100080000A11820749344434203425344C3458341E
:100090004C3445344E342034253455340034C20AAF
:1000A0000319C30A8C108A110A122528203003175D
:1000B000C200BE01BF01C001C1013908FA00380801
:1000C000F9003708F8003608F7000310771C762887
:1000D0003A08BE073B0803183B0FBF073C0803184C
:1000E0003C0FC0073D0803183D0FC107C10CC00CF1
:1000F000BF0CBE0CFA0CF90CF80CF70CC20B6528FF
:100100000313003403300317CD004B08CC008316D3
:1001100003138611831286110317CE014E080F3C7C
:10012000031CB1280310CC0DCD0D03189B2803131D
:1001300087129D28031703138716C01240088316E1
:1001400087008312C0114008831687008312871529
:10015000C011400883168700831287110317CE0A47
:100160008E28CE014E08073C031CD32803134016EB
:100170004008831687008312071AC0280310C1287D
:1001800003140317CF0D0313C01140088316870013
:1001900083128715C01140088316870083128711C8
:1001A0000317CE0AB228831603138611831286150D
:1001B00003174F08F8000313003402300317DC0064
:1001C0005808DB005908DA008316031386118312DE
:1001D00086110317DD015D08173C031C0F2903106E
:1001E000DA0DDB0DDC0D0318F92803138712FB2849
:1001F000031703138716C012400883168700831263
:10020000C01140088316870083128715C01140086B
:1002100083168700831287110317DD0AEB288316E4
:100220000313861183128615003401300317D6009C
:100230005430D500D008031976295508840083135B
:10024000561883174C08800055080319D603D503A8
:10025000550884008313561883174D0880005508ED
:100260000319D603D5035508840083135618831742
:100270004E080339800055088400831356188317ED
:100280004E08F700F70DF70DF70DF830F705770872
:10029000E039000480005508840083135618831742
:1002A00000080838800055080319D603D5035508FF
:1002B00084008313561883174E08F700F70EF70CC7
:1002C0000730F70577080739800055088400831345
:1002D000561883174F08F700F70DF70DF70DF83094
:1002E000F7057708F83900048000BA29550884001A
:1002F000831356188317800155080319D603D503B5
:100300005508840083135618831780015508031974
:10031000D603D503550884008313561883174C0859
:10032000F700F70EF70DE030F7057708E0398000A9
:1003300055080319D603D5035508840083135618AE
:1003400083174C08F700F70CF70CF70C1F30F70574
:1003500077081F39800055088400831356188317C7
:100360004D08F700F70EF70DE030F7057708E03994
:10037000000480004B08CB03D700D8005408D900F4
:100380000313DD2003174B08CB03D700D800530815
:10039000D9000313DD2003174B08CB03D700D80087
:1003A0005208D9000313DD2003174B08D800510869
:1003B000D9000313DD2000340317B6013608313CA1
:1003C000031CE929A0303607840083138001B60A94
:1003D000DE290313C10100348C1EEC291A0803170F
:1003E0009D009D080319FF29A030031341078400D5
:1003F000831303171D0880000313C10A03171D0888
:100400000D3C031D6B2CA301A201B101B001AF0192
:10041000AE01B501B401B301B2019F011F08093C4F
:10042000031C192A24301F078400831780019F0AA8
:100430000E2A1E30831603132102831203179E0017
:100440001E08A1009F011E081F0203180F2B023077
:100450001F07A03E840083131E300002B200B301C8
:10046000B401B5012108023C031D4E2A3508B9002C
:100470003408B8003308B7003208B600BD01BC012B
:10048000BB010A30BA00031356207A080317B500DF
:100490007908B4007808B3007708B2002108033C5B
:1004A000031D6A2A3508B9003408B8003308B700BC
:1004B0003208B600BD01BC01BB016430BA000313B1
:1004C00056207A080317B5007908B4007808B300FD
:1004D0007708B2002108043C031D872A3508B900BB
:1004E0003408B8003308B7003208B600BD01BC01BB
:1004F0000330BB00E830BA00031356207A08031714
:10050000B5007908B4007808B3007708B200210874
:10051000053C031DA42A3508B9003408B800330887
:10052000B7003208B600BD01BC012730BB00103057
:10053000BA00031356207A080317B5007908B400EF
:100540007808B3007708B2002108063C031DC22AD0
:100550003508B9003408B8003308B7003208B600CF
:10056000BD010130BC008630BB00A030BA000313CF
:1005700056207A080317B5007908B4007808B3004C
:100580007708B2002108073C031DE02A3508B900AE
:100590003408B8003308B7003208B600BD010F3088
:1005A000BC004230BB004030BA00031356207A082A
:1005B0000317B5007908B4007808B3007708B200D3
:1005C0002108083C031DFE2A3508B9003408B8008C
:1005D0003308B7003208B600BD019830BC00963031
:1005E000BB008030BA00031356207A080317B50009
:1005F0007908B4007808B3007708B2003208AE0773
:1006000033080318330FAF0734080318340FB0074B
:1006100035080318350FB107A1039F0A232A0230BA
:100620001E07A03E840083131E300002A200033088
:100630001E07A03E840083131E300002A300043076
:100640001E07A0009F0122081F020318B82BA0302C
:1006500020078400831300089E001E081D3C031C15
:10066000332B0030342B0130B6001E08273C031812
:100670003B2B00303C2B01303605003A0319422B4E
:100680001E309E021E083C3C031C482B0030492BA8
:100690000130B6001E08423C0318502B0030512B8D
:1006A00001303605003A0319572B33309E022430AF
:1006B0001F07840083171E08800001302007A03E1A
:1006C0008400831300089E001E081D3C031C6A2B37
:1006D00000306B2B0130B6001E08273C0318722B2C
:1006E0000030732B01303605003A0319792B1E3088
:1006F0009E021E083C3C031C7F2B0030802B0130E7
:10070000B6001E08423C0318872B0030882B0130AE
:100710003605003A03198E2B33309E0201301F0735
:10072000243E840083171E08800001301F07243EEA
:10073000840083170008B70024301F078400831744
:100740000008F700F70EF030F705770837079E002E
:1007500024301F07840083171E08800001301F0704
:10076000243E840083178001A00AA00A9F0A232B3D
:100770003108B9003008B8002F08B7002E08B600BD
:100780000130BB002430BA002208BC000330BD0099
:100790000130BE002308BF003030CB00031382209D
:1007A00078080317C8004030CB0003138220780874
:1007B0000317C9005030CB000313822078080317B9
:1007C000CA00C819ED2B3630C2003030C3003430B7
:1007D000C4003530C500C1010A2CC919FA2B4630B6
:1007E000C2004030C3004430C4004530C500013071
:1007F000C1000A2CCA19072C5630C2005030C30061
:100800005430C4005530C5000230C1000A2C0030FD
:10081000F800672C4308CB000313822078080317E5
:10082000C6003D080339F700FC3046057704C600D2
:100830004308D8004608D9000313DD2003174408F5
:10084000CB003908CF003808CE003708CD00360875
:10085000CC003E08D0000313152103173C08C70045
:1008600047133F1847174508D8004708D900031316
:10087000DD2003174208C0003C084207400203186D
:10088000562C3B08FA003A08840083133B18831760
:100890000008CB004008D8004B08D9000313DD2026
:1008A0000317BA0A0319BB0AC00A3C2C4308CB0041
:1008B0000313822078080317C600C6154308D80022
:1008C0004608D9000313DD200130F8000317031395
:1008D000DC210000031703134108313C0319DC211C
:1008E0008C128A110A122528D33084008313000841
:1008F0000319802CCF30F700F70B7C2C800B7A2C5F
:100900008A110A12022DA8018B1BA8178B130F3016
:100910000317CB0003138220A81B8B1778088316BC
:10092000D400530E7039F7000310F70D1F30540533
:100930007704D4008312A8018B1BA8178B130F30E8
:100940000317D80083160313540883120317D90022
:100950000313DD20A81B8B17A8018B1BA8178B1373
:100960000F300317CB0003138220A81B8B177808C6
:100970008316D4005408F700F70E770C073953029A
:100980000319C42C8312AC2C8312003483168611F5
:1009900083128615C01140088316870083128711C1
:1009A000C0308316D3008611831286118316D401BA
:1009B0005408073C031CFA2C0310D30D0318E42C35
:1009C00083128712E62C831683128716C012400802
:1009D000831687008312C011400883168700831294
:1009E0008715C0114008831687008312871183166C
:1009F000D40AD82C86118312861505308316D300AD
:100A00008312742C000004308316D30083128324D5
:100A1000C030831653050438D3003F305305D3004C
:100A2000F83054050238D400C73054052838D400B3
:100A30005413D417F83055050538D50055138312D3
:100A4000A8018B1BA8178B132A300317D800831615
:100A50000313530883120317D9000313DD20A81BC7
:100A60008B17A8018B1BA8178B1329300317D800ED
:100A700083160313540883120317D9000313DD20D0
:100A8000A81B8B17A8018B1BA8178B1328300317E3
:100A9000D80083160313550883120317D9000313D4
:100AA000DD20A81B8B1700008316D2019F30520552
:100AB000D20052158312A8018B1BA8178B1360302C
:100AC0000317D80083160313520883120317D900A3
:100AD0000313DD20A81B8B17A8018B1BA8178B13F2
:100AE00070300317D80083160313520883120317BC
:100AF000D9000313DD20A81B8B17A8018B1BA81797
:100B00008B1323300317CB00CF01CE01CD01CC01D5
:100B10000130D00003131521A81B8B17A8018B1BD4
:100B2000A8178B1303300317CB00CF01CE01CD01E3
:100B3000CC010130D00003131521A81B8B17A8018D
:100B40008B1BA8178B1307300317CB00CF01CE01E7
:100B5000CD01CC010130D00003131521A81B8B1748
:100B6000A8018B1BA8178B1327300317CB00CF01CD
:100B7000CE01CD01CC010130D00003131521A81BFB
:100B80008B17A8018B1BA8178B130B300317CB00F7
:100B9000CF01CE01CD01CC010130D00003131521CE
:100BA000A81B8B17A8018B1BA8178B1313300317D7
:100BB000CB00CF01CE01CD01CC010130D000031319
:100BC0001521A81B8B17A8018B1BA8178B13173097
:100BD0000317CB00CF01CE01CD01CC010130D000F5
:100BE00003131521A81B8B17A8018B1BA8178B13A8
:100BF0001B300317CB00CF01CE01CD01CC0101305A
:100C0000D00003131521A81B8B178316D301831261
:100C100083240000A8018B1BA8178B13DC21A81BC1
:100C20008B177830F80006389200F6308316920061
:100C30008C14C03083128B0483168C1683128A1195
:100C40000A12292F8316DA010408D9005A10831BCF
:100C50005A14530EF038D500D507E23ED600323E86
:100C6000D80053080F39D607D607D807E93ED70072
:100C7000D707D707520E0F39D707D807D70DD80D8A
:100C8000D809D80D52080F39D807D50D0730D40030
:100C90000A30D807D703031C492ED707D603031CF5
:100CA0004D2ED607D503031C512ED507D403031CA4
:100CB000552ED43084008313073059058407D8306B
:100CC000040203197B2E0008F700031D6D2E591A2C
:100CD000792ED9196F2E2030702E0830D90030307F
:100CE000F707770883120C1A772E8316722E990055
:100CF0008316840A5F2E0008F7003030F707770864
:100D000083120C1A852E8316802E99008A150A12DA
:100D10002C2B8316D41BA12E0F30F700530EF70592
:100D20000A3077020318972E3030F707992E5408AF
:100D3000F707770883120C1A9F2E83169A2E9900B4
:100D400083160F30D3050A3053020318A92E303012
:100D5000AB2ED4135408D307530883120C1AB22EA7
:100D60008316AD2E9900003483165808F8015702F7
:100D70000318BD2E5708F700C92EF7010830D90017
:100D8000D70DF70D580877020318F700F80DD90BA7
:100D9000C02E83120034780883165508D7006430BB
:100DA000D8008312B42677088316D500780830302F
:100DB000031DE12E5618EC2ED619EC2E561A2030B3
:100DC000E32ED6115612F807780883120C1AEA2E71
:100DD0008316E52E990083165508D7000A30D800EF
:100DE0008312B42677088316D50078083030031DA7
:100DF000FD2ED619062F561A2030F80778088312D0
:100E00000C1A042F8316FF2E990083163030D50755
:100E1000550883120C1A0E2F8316092F99008A1574
:100E20000A129C2B840183131F30830583161F1421
:100E30009F141F159F11073083129F0003308316E4
:100E4000990022309800903083129800FF30C00043
:0C0E5000C62C8A1500288A11292F2D2F8E
:10100000A8018B1BA8178B132C300317CB008A1158
:10101000031382208A15A81B8B1778088316D20029
:1010200052181428D21C17280130F8001928003053
:10103000F800F8080319E12B861083128614831632
:10104000D3012D30D2008312A8018B1BA8178B135C
:101050002C300317CB008A11031382208A15A81B9A
:101060008B1778088316DD008312A8018B1BA81745
:101070008B1360300317CB008A11031382208A156B
:10108000A81B8B1778088316D5008312A8018B1B29
:10109000A8178B1370300317CB008A11031382201B
:1010A0008A15A81B8B1778088316D6008312A8010F
:1010B0008B1BA8178B132D300317CB008A1103133A
:1010C00082208A15A81B8B1778088316D7005D1C11
:1010D0009E2883123F123F108316571F72288312D7
:1010E0003F14831657138312A8018B1BA8178B1369
:1010F0002D300317D80083160313570883120317E4
:10110000D9008A110313DD208A15A81B8B178316BB
:10111000551D97280030551801300739F700031086
:10112000F70DF13083123F057704BF008316653059
:10113000D8006230DA006630DC00D528DD1CD22809
:1011400083123F163F108316D71FA92883123F141E
:101150008316D7138312A8018B1BA8178B132D306E
:101160000317D80083160313570883120317D900F7
:101170008A110313DD208A15A81B8B1783165608C6
:1011800007390739F7000310F70DF13083123F05D7
:101190007704BF0075308316D8007230DA007630DD
:1011A000DC00D5280030F8001C2B8312A8018B1B13
:1011B000A8178B138316580883120317CB008A11C4
:1011C000031382208A15A81B8B1778088316D90071
:1011D00059080F398312BE00BF128316591FF32816
:1011E0008312BF1683168312A8018B1BA8178B13BB
:1011F00083165A0883120317CB008A110313822027
:101200008A15A81B8B1778088316DB0083123F13FF
:101210008316DB1D0E2983123F17831602305A07EF
:10122000DE00003083123F1B01308316DF005E08B2
:10123000E6005F08E7000130ED001330EC006608BF
:10124000E6038312031794000313A8018B1BA8174E
:101250008B1303171408CB008A11031382208A15FD
:10126000A81B8B17780803179300831603136608CF
:10127000E6038312031794000313A8018B1BA8171E
:101280008B1303171408CB008A11031382208A15CD
:10129000A81B8B17780803179200831603136608A0
:1012A000E6038312031794000313A8018B1BA817EE
:1012B0008B1303171408CB008A11031382208A159D
:1012C000A81B8B177808031791000313A8018B1B29
:1012D000A8178B138316660883120317CB008A1195
:1012E000031382208A15A81B8B1778080317900018
:1012F00083160313EB01EA01E901E801E70803198A
:10130000422A6D08FA006C08840083136D18831755
:101310000008F700F801F901FA017A08EB007908F2
:10132000EA007808E9007708E8006C080319ED0383
:10133000EC036C08840083136D1883170008831274
:10134000031797019601950194001608FA001508F5
:10135000F9001408F800F701770883160313E8046E
:101360007808E9047908EA047A08EB046C080319A0
:10137000ED03EC036C08840083136D1883170008D9
:101380008312031797019601950194000339980081
:10139000150800399900160800399A001708003915
:1013A0009B001908FA001808F900F701F8017708FE
:1013B00083160313E8047808E9047908EA047A0834
:1013C000EB046C08840083136D18831700088312E4
:1013D00003179701960195019400E03998001508CC
:1013E00000399900160800399A00170800399B0047
:1013F000F701180DF800190DF9001A0DFA00F80D93
:10140000F90DFA0DF80DF90DFA0DF80DF90DFA0DAB
:10141000F80DF90DFA0DE030F8057708831603137F
:10142000E8047808E9047908EA047A08EB046C080F
:101430000319ED03EC036C08840083136D18831704
:101440000008831203179701960195019400F70194
:10145000F801140DF900150DFA00F90DFA0DF90D4A
:10146000FA0DF90DFA0DF90DFA0DE030F9057708CE
:1014700083160313E8047808E9047908EA047A0873
:10148000EB04B32A0230EC020030031C0130ED0201
:101490006C08840083136D188317000883120317E8
:1014A0009701960195019400E039980015080039DC
:1014B0009900160800399A00170800399B001B0C88
:1014C00083160313EB00831203171A0C83160313FE
:1014D000EA0083120317190C83160313E900831221
:1014E0000317180C83160313E800EB0CEA0CE90C45
:1014F000E80CEB0CEA0CE90CE80CEB0CEA0CE90C40
:10150000E80CEB0CEA0CE90CE80C0730EB056C0876
:101510000319ED03EC036C08840083136D18831723
:101520000008831203179701960195019400140D8A
:10153000F700150DF800160DF900170DFA00F70D5C
:10154000F80DF90DFA0DF70DF80DF90DFA0DF8304B
:10155000F705770883160313E8047808E904790887
:10156000EA047A08EB046808F7006908F8006A08DA
:10157000F9006B08FA007A088312AC007908AB0016
:101580007808AA007708A90083165C08D4008312A3
:101590003E0883165C0754020318F12A5308FA0028
:1015A0005208DE005308DF008312A8018B1BA81726
:1015B0008B138316540883120317CB008A1103136D
:1015C00082208A15A81B8B1783165E08840083135C
:1015D0005F18831778088000D20A0319D30AD40A47
:1015E000C72A8312BF138316DD1FF92A8312BF1780
:1015F0008316DD1FFC2ADD1383123F1E032B831687
:10160000DD10052B831283165D108312A8018B1B3E
:10161000A8178B132C300317D800831603135D080B
:1016200083120317D9008A110313DD208A15A81B22
:101630008B170130F8008316F8080319DD2B1030E2
:101640008400831243088316D30083124208831652
:10165000D2008A118312222E8A1520300C1E2E2BC6
:10166000990005308316D200203083120C1A3A2BD1
:101670008316352B99008316D20B342B49308312F5
:101680000C1A442B83163F2B990044300C1E462B1A
:10169000990020300C1E4A2B99002C088316D30089
:1016A0003730D4008A11831289268A152B088316B5
:1016B000D3003730D4008A11831289268A152A086C
:1016C0008316D3003730D4008A11831289268A15F5
:1016D00029088316D3003730D4008A118312892653
:1016E0008A1503308316D300203083120C1A7A2B0C
:1016F0008316752B99008316D30B742B0630D400F8
:1017000054088A1183123E208A158316D40AF700E2
:1017100083120C1A8D2B8316882B99000A3083169E
:101720005402031D802B83123E088316D500183007
:10173000D6008A118312CB2E8A1503308316D5006A
:10174000203083120C1AA62B8316A12B9900831626
:10175000D50BA02B8312BF1AC22BBD013E083D0240
:101760000318C22B2D303D07840083130008831615
:10177000D200D3003730D4008A11831289268A150B
:10178000BD0AAE2BBF1EC82B52300C1EC52B9900B4
:101790003F1CCE2B4F300C1ECB2B9900BF1FD42BE0
:1017A00049300C1ED12B99000D300C1ED52B990001
:1017B0000A300C1ED92B99008316861083128610CE
:0A17C000831683128A110A122B2FE0
:02400E00313748
:00000001FF
;PIC16F876A
