:10000000000000308A002C2DFF00030E8301A100A8
:100010000A08A0008A010408A2007708A300780853
:10002000A4007908A5007A08A6007B08A70083131E
:1000300083128C308400801C1F288C183E288C3042
:100040008400001D25280C1941288D308400001CD7
:100050002B280D184428220884002308F7002408C0
:10006000F8002508F9002608FA002708FB002008F8
:100070008A00210E8300FF0E7F0E09008A110A12EA
:1000800087288A110A1247288A110A1268284A0802
:10009000033C031D50280130D3070318D40A6428F9
:1000A0004A08043C031958284A08063C031D6428E2
:1000B0005408FA0053087A04031964280130D30263
:1000C0000030031C0130D4020C118A110A122B28B3
:1000D0004A0B6F280130D1070318D20A83284A0837
:1000E000023C031977284A08053C031D832852085F
:1000F000FA0051087A04031983280130D102003034
:10010000031C0130D2020D108A110A122B28DB0ABF
:100110000319DC0A5B08643C031D9428DC08031DFA
:100120009428CD16DC01DB01CA0803199D28CB08F1
:10013000031D9D28D90A0319DA0A58085A02031C1C
:10014000AD28031DA72857085902031CAD28CB086A
:10015000031DAD284D16DA01D90156085A02031CB9
:10016000BD28031DB72855085902031CBD28CB081C
:10017000031DBD284D16DA01D9018C108A110A120F
:100180002B285E308400831300080319CD28CF305C
:10019000F700F70BC928800BC728003403308316FB
:1001A000AD002B08AC008611831286118316AE01B8
:1001B0002E080F3C031CFB280310AC0DAD0D0318DB
:1001C000E52883128712E728831683128716BF1249
:1001D0003F08831687008312BF113F0883168700EC
:1001E00083128715BF113F0883168700831287117A
:1001F0008316AE0AD828AE012E08073C031C1D2921
:1002000083123F163F08831687008312071A0A29B4
:1002100003100B2903148316AF0D8312BF113F087F
:100220008316870083128715BF113F088316870046
:10023000831287118316AE0AFC2886118312861555
:1002400083162F08F8008312003402308316B000A2
:100250002C08AF002D08AE0086118312861183167C
:10026000B1013108173C031C55290310AE0DAF0D29
:10027000B00D03183F298312871241298316831278
:100280008716BF123F08831687008312BF113F08ED
:100290008316870083128715BF113F0883168700D6
:1002A000831287118316B10A3129861183128615AC
:1002B00000340F308316AB008312CE207808DF00A5
:1002C0005E0E7039F7000310F70D1F305F057704DD
:1002D000DF000F308316AC0083125F088316AD0079
:1002E000831225210F308316AB008312CE207808AD
:1002F000DF005F08F700F70E770C07395E02031D79
:1003000072290034F601A730F500F4080319E32937
:1003100075088400831376188317831620088000DD
:1003200075080319F603F50375088400831376181E
:1003300083172108800075080319F603F503750873
:100340008400831376188317220803398000750808
:1003500084008313761883172208F700F70DF70D32
:10036000F70DF830F7057708E039000480007508CC
:1003700084008313761883170008083880007508F6
:100380000319F603F50375088400831376188317A1
:100390002208F700F70EF70C0730F7057708073942
:1003A0008000750884008313761883172308F700EC
:1003B000F70DF70DF70DF830F7057708F839000459
:1003C0008000282A83127508840083137618831707
:1003D000800175080319F603F5037508840083137B
:1003E00076188317800175080319F603F50375085D
:1003F000840083137618831783162008F700F70EFE
:10040000F70DE030F7057708E0398000750803192B
:10041000F603F50375088400831376188317200804
:10042000F700F70CF70CF70C1F30F70577081F39AA
:100430008000750884008313761883172108F7005D
:10044000F70EF70DE030F7057708E039000480007B
:100450007308F303A800AC002708AD008312252120
:100460007308F3038316A800AC002608AD008312BE
:1004700025217308F3038316A800AC002508AD00FE
:100480008312252173088316AC002408AD00831263
:10049000252100348316861183128615BF113F086B
:1004A0008316870083128711C030DE008316861101
:1004B00083128611DF015F08073C031C792A0310B1
:1004C000DE0D0318652A8712662A8716BF123F08B9
:1004D000831687008312BF113F088316870083129B
:1004E0008715BF113F088316870083128711DF0A23
:1004F0005B2A83168611831286150530DE00C12023
:1005000000000430DE005921C0305E050438DE00F2
:100510003F305E05DE00F8305F050238DF00C7308F
:100520005F052838DF005F13DF17F83060050538F6
:10053000E00060132A308316AC0083125E08831635
:10054000AD008312252129308316AC0083125F0889
:100550008316AD008312252128308316AC00831248
:1005600060088316AD00831225210000DD019F3055
:100570005D05DD005D1560308316AC0083125D08FB
:100580008316AD008312252170308316AC008312D0
:100590005D088316AD00831225212330F3008316F6
:1005A000A301A201A101A0010130F4008312822164
:1005B0000330F3008316A301A201A101A0010130C1
:1005C000F400831282210730F3008316A301A201F5
:1005D000A101A0010130F400831282212730F30031
:1005E0008316A301A201A101A0010130F40083122E
:1005F00082210B30F3008316A301A201A101A00107
:100600000130F400831282211330F3008316A3011A
:10061000A201A101A0010130F40083128221173050
:10062000F3008316A301A201A101A0010130F4008F
:10063000831282211B30F3008316A301A201A101C2
:10064000A0010130F40083128221DE015921000053
:1006500083160512831205128316851283128516DE
:1006600083160612831206128316851183128511D2
:10067000DA01D901DC01DB01CA01CB01C401C501EA
:100680004D10CD10CD114D114D12C601C801DA012A
:10069000D9010130D800F430D7000130D600F43051
:1006A000D50083161F109F101F159F111F13831253
:1006B0001F179F1783169F1383121F143F153F08A0
:1006C000831687008312970105309700BF143F08F7
:1006D0008316870083129D0105309D0083160D143B
:1006E0000C152030F800063883129200083083166B
:1006F000920085308312900083168C14C0308312D0
:100700008B048A110A12752DF801F901F701FA011B
:100710006208031D8E2B61080319A82B1030E3001B
:100720000310DF0DE00DF70DFA0D62087A02031DCC
:100730009B2B61087702031CA42B6108F702031CA2
:10074000FA036208FA020314F80DF90DE30B902B7B
:1007500000000034CD1E322C5408E0005308DF00A6
:10076000E2014D30E10084237808CF005208E00018
:100770005108DF00E201A630E10084237808CE00B2
:1007800054084B3C0318CD2BFF3A031DCB2B5308C9
:10079000B33C0318CD2B6430CE070830F8001F0897
:1007A000C73978049F00000000000000000000002E
:1007B00000001F151F19DA2B1E08DE01DD005E0880
:1007C000C1005D08C000DE08031DEA2B5D08C83CBF
:1007D0000318F02B4D160130C4004A0BF02BCD143A
:1007E000DE08031D012C5D082C3C031C012C4A086B
:1007F000023C0319FF2B4A08063C031D012C4D1433
:100800004D160030F8001F08C73978049F0000001B
:10081000000000000000000000001F151F190E2C32
:100820001E08DE01DD005E08C3005D08C200DE08B0
:10083000031D1E2C5D08783C0318312C4D16013029
:10084000C5004A08033C0319292C4A08053C031D2E
:100850002B2CCD154D114A08043C031D312C4D1590
:10086000CD11CD128A110A12762D1030F700FA013F
:10087000E101DE0CDD0C031C432C5F08FA070318B2
:10088000E10A6008E107E10CFA0CF90CF80CF70B2F
:10089000392C0034CA08031DF02C460B6B2CCD18E4
:1008A0006B2CDE014708DD000130E000F430DF0092
:1008B00035247908D8007808D70083168612831269
:1008C000861683160612831206166430DE00C120D7
:1008D0004D100130CA004608023C031D8B2C4D18F8
:1008E0008B2CDE014708DD000130E000F430DF0032
:1008F00035247908D8007808D70083168612831229
:10090000861283160612831206166430DE00C1209A
:10091000CD100230CA00480BA92C4D19A92CDE01BC
:100920004908DD000130E000F430DF0035247908AB
:10093000D6007808D5008316051183120515831695
:100940008511831285156430DE00C120CD1103307E
:10095000CA004808023C031DC92CCD19C92CDE0170
:100960004908DD000130E000F430DF00352479086B
:10097000D6007808D5008316051183120511831659
:100980008511831285156430DE00C1204D110430BD
:10099000CA004B0BF02CCD19D82C831605118312ED
:1009A000051183168511831285150530CA00F02CB8
:1009B0004D18E52C831686128312861283160612B2
:1009C000831206160630CA00F02C4D1CF02CCD1DEB
:1009D000F02CD401D301D201D101CE01CF01CB0142
:1009E000CA080319052D4D1AF72C4C0B052D83163B
:1009F0008511831285118316061283120612C60111
:100A0000C801DA01D901CA014D120030CD180130F8
:100A1000DD0000304D180130F7000310F70D7708A6
:100A20005D07DF000030CD190130F700F70DF70D3D
:100A3000FC30F70577085F07E10000304D19013001
:100A4000F700F70DF70DF70DF830F7057708610798
:100A5000D0008A110A12772D1F3083055030F7001D
:100A60002030840083138001840A6400F70B332D47
:100A7000F101F201F301F401F501F601F801F901C8
:100A8000FA01FB01FC01FD01FE015030F700A0302E
:100A9000840083138001840A6400F70B4A2D6030C0
:100AA000F7001030840083178001840A6400F70B7C
:100AB000542D83135930F700903084008317800140
:100AC000840A6400F70B5F2D8313A0018401831354
:100AD0001F30830583161F149F141F159F110730A5
:100AE00083129F00FF30BF004A2AAA2B4A2C8A1586
:080AF00000288A11752D7B2DF1
:101000002C308316AB008A118312CE208A15780803
:10101000DD005D180D28DD1C10280130F8001228B5
:101020000030F800F80803193E2BDE012C30DD00FB
:101030002C308316AB008A118312CE208A157808D3
:10104000E80060308316AB008A118312CE208A1527
:101050007808E00070308316AB008A118312CE202E
:101060008A157808E1002D308316AB008A118312AF
:10107000CE208A157808E200681C62283E123E10D5
:10108000621B3E1462132D308316AC00831262087B
:101090008316AD008A11831225218A15601D5B28F5
:1010A0000030601801300739F7000310F70DF130F8
:1010B0003E057704BE006530E3006230E50066302F
:1010C000E7008828E81C85283E163E10E21B3E14E7
:1010D000E2132D308316AC00831262088316AD0034
:1010E0008A11831225218A15610807390739F7000B
:1010F0000310F70DF1303E057704BE007530E300B4
:101100007230E5007630E70088280030F800302A99
:1011100063088316AB008A118312CE208A157808E3
:10112000E40064080F39BD00BE12641BBE166508DA
:101130008316AB008A118312CE208A157808E60048
:101140003E13E6193E1702306507E90000303E1BEA
:101150000130EA006908F2006A08F300F501A730DF
:10116000F4007208F2038316A800AB008A11831200
:10117000CE208A1578088316A7007208F203A8000B
:10118000AB008A118312CE208A1578088316A60038
:101190007208F203A800AB008A118312CE208A15D0
:1011A00078088316A5007208AB008A118312CE203E
:1011B0008A1578088316A400A301A201A101A00149
:1011C000F30803198A297508FA0074088400831348
:1011D000751883170008F700F801F901FA017A0879
:1011E000A3007908A2007808A1007708A00074087D
:1011F0000319F503F4037408840083137518831727
:101200000008AB01AA01A901A800F7017708A00412
:101210002808A1042908A2042A08A30474080319B1
:10122000F503F4037408840083137518831700080A
:10123000AB01AA01A901A8000339AC0029080039B3
:10124000AD002A080039AE002B080039AF00F701C5
:10125000F8017708A0047808A1042C08A2042D083E
:10126000A304740884008313751883170008AB0166
:10127000AA01A901A800E039AC0029080039AD0095
:101280002A080039AE002B080039AF00F7012C0DF9
:10129000F8002D0DF9002E0DFA00F80DF90DFA0DDC
:1012A000F80DF90DFA0DF80DF90DFA0DF80DF90D0F
:1012B000FA0DE030F8057708A0047808A104790851
:1012C000A2047A08A30474080319F503F40374084C
:1012D00084008313751883170008AB01AA01A901C4
:1012E000A800F701F801280DF900290DFA00F90D01
:1012F000FA0DF90DFA0DF90DFA0DF90DFA0DE030B0
:10130000F9057708A0047808A1047908A2047A08EE
:10131000A304E7290230F4020030031C0130F50277
:10132000740884008313751883170008AB01AA01A1
:10133000A901A800E039AC0029080039AD002A084D
:101340000039AE002B080039AF002F0CA3002E0C83
:10135000A2002D0CA1002C0CA000A30CA20CA10C2F
:10136000A00CA30CA20CA10CA00CA30CA20CA10C11
:10137000A00CA30CA20CA10CA00C0730A3057408B0
:101380000319F503F4037408840083137518831795
:101390000008AB01AA01A901A800280DF700290D3A
:1013A000F8002A0DF9002B0DFA00F70DF80DF90DD4
:1013B000FA0DF70DF80DF90DFA0DF830F70577086D
:1013C000A0047808A1047908A2047A08A3042008DC
:1013D000F7002108F8002208F9002308FA007A082B
:1013E0008312AB007908AA007808A9007708A80042
:1013F0006708DF003D0867075F020318182A5E08C8
:10140000FA005D08E9005E08EA005F088316AB0099
:101410008A118312CE208A156908840083136A1802
:10142000831778088000DD0A0319DE0ADF0AFA292B
:10143000BE13E81BBE17E81F1E2AE8133E1E222A11
:10144000E810232A68102C308316AC008312680839
:101450008316AD008A11831225218A150130F80008
:10146000F80803193E2BA808031D202B2908043C6B
:10147000031D202BAA08031D202BAB08031D202BC6
:1014800083168610831286144008B4004208B50003
:101490004408B6004508B7004A08B8004F08B9002C
:1014A0004E08BA005008BB00E001DF010430DE0046
:1014B0000130DD00E2013430E1000830E3000130AA
:1014C000E400E500E60130308316AB008A11831298
:1014D000CE208A157808EF0040308316AB008A11C1
:1014E0008312CE208A157808F10050308316AB00A5
:1014F0008A118312CE208A157808F200EF198A2A01
:101500003630E9003030EA003430EB003530EC00A2
:10151000E801A72AF119972A4630E9004030EA008D
:101520004430EB004530EC000130E800A72AF21906
:10153000A42A5630E9005030EA005430EB00553010
:10154000EC000230E800A72A0030F8001E2B6A08E1
:101550008316AB008A118312CE208A157808ED001D
:1015600064080339F700FC306D057704ED006A0864
:101570008316AC0083126D088316AD008A118312A6
:1015800025218A156B08F30060088316A3008312D7
:101590005F088316A20083125E088316A1008312DF
:1015A0005D088316A00083126508F4008A11822169
:1015B0008A156308EE006E1366186E176C088316A2
:1015C000AC0083126E088316AD008A1183122521A8
:1015D0008A156908E7006308690767020318072B83
:1015E0006208FA00610884008313621883170008F8
:1015F000F30067088316AC007308AD008A118312EC
:1016000025218A15E10A0319E20AE70AEB2A6A088A
:101610008316AB008A118312CE208A157808ED005C
:10162000ED156A088316AC0083126D088316AD00B1
:101630008A11831225218A150130F800C401C501E1
:101640002808023C031D3E2B2908043C031D3E2BA9
:10165000AA08031D3E2BAB08031D3E2B83168610E4
:10166000831286142C08C8002D08C9002E08C60055
:101670002F08C7003008CC003108CB008316861035
:0A168000831286108A110A12792DD8
:02400E00313748
:00000001FF
;PIC16F876A
