:10000000000000308A00662D3D3084008313000814
:1000100003191028CF30F700F70B0C28800B0A28A3
:1000200000340330DE005C08DD0083168611831285
:100030008611DF015F080F3C031C39280310DD0D1A
:10004000DE0D03182528871226288716B7123708D1
:10005000831687008312B71137088316870083122F
:100060008715B71137088316870083128711DF0AB7
:100070001A28DF015F08073C031C5728371637088A
:10008000831687008312071A472803104828031491
:10009000E00DB71137088316870083128715B71153
:1000A00037088316870083128711DF0A3A288316E0
:1000B0008611831286156008F80000340230D100E2
:1000C0004D08D0004E08CF0083168611831286118A
:1000D000D2015208173C031C89280310CF0DD00D04
:1000E000D10D03187528871276288716B71237089E
:1000F000831687008312B71137088316870083128F
:100100008715B71137088316870083128711D20A23
:100110006928831686118312861500340F30DC009F
:1001200011207808BD003C0E7039F7000310F70D60
:100130001F303D057704BD000F30CD003D08CE00D7
:100140005E200F30DC0011207808BD003D08F7006C
:10015000F70E770C07393C02031DA1280034C701B4
:100160004530C600C10803190E29460884008313D0
:10017000471883173D08800046080319C703C603C4
:10018000460884008313471883173E0880004608FA
:100190000319C703C603460884008313471883174F
:1001A0003F080339800046088400831347188317EB
:1001B0003F08F700F70DF70DF70DF830F705770852
:1001C000E039000480004608840083134718831731
:1001D00000080838800046080319C703C60346080C
:1001E00084008313471883173F08F700F70EF70CB6
:1001F0000730F70577080739800046088400831325
:10020000471883174008F700F70DF70DF70DF83082
:10021000F7057708F8390004800052294608840061
:10022000831347188317800146080319C703C603C1
:100230004608840083134718831780014608031972
:10024000C703C603460884008313471883173D0875
:10025000F700F70EF70DE030F7057708E03980007A
:1002600046080319C703C6034608840083134718CA
:1002700083173D08F700F70CF70CF70C1F30F70554
:1002800077081F39800046088400831347188317B6
:100290003E08F700F70EF70DE030F7057708E03974
:1002A000000480003C08BC03C800CD004508CE0017
:1002B0005E203C08BC03C800CD004408CE005E2090
:1002C0003C08BC03C800CD004308CE005E203C08BB
:1002D000CD004208CE005E200034831686118312C2
:1002E0008615B71137088316870083128711C0302F
:1002F000BC008316861183128611BD013D08073CA0
:10030000031C9C290310BC0D031888298712892916
:100310008716B7123708831687008312B71137087C
:100320008316870083128715B71137088316870055
:1003300083128711BD0A7E298316861183128615C2
:100340000530BD00042000000430BC008E20C03009
:100350003C050438BC003F303C05BC00F8303D058E
:100360000238BD00C7303D052838BD003D13BD171C
:10037000F8303E050538BE003E132A30CD003C085B
:10038000CE005E202930CD003D08CE005E20283012
:10039000CD003E08CE005E200000BB019F303B0533
:1003A000BB003B156030CD003B08CE005E207030B6
:1003B000CD003B08CE005E202330BC00C001BF0151
:1003C000BE01BD010130C100AF200330BC00C0013F
:1003D000BF01BE01BD010130C100AF200730BC002C
:1003E000C001BF01BE01BD010130C100AF202730F7
:1003F000BC00C001BF01BE01BD010130C100AF2082
:100400000B30BC00C001BF01BE01BD010130C10005
:10041000AF201330BC00C001BF01BE01BD010130DF
:10042000C100AF201730BC00C001BF01BE01BD013B
:100430000130C100AF201B30BC00C001BF01BE01B4
:10044000BD010130C100AF20BC018E2000003A1474
:1004500083160108C03908388100831290010030EA
:10046000F80004389200FF3083169200831237118F
:10047000370883168700831207110C3097008A1102
:100480000A12AF2D83160510831205140230BC002A
:10049000FA30BD000420BC0B482A83168510831255
:1004A00085140230BC00FA30BD000420BC0B532A76
:1004B00083160511831205150230BC00FA30BD0009
:1004C0000420BC0B5E2A8316851183128515023029
:1004D000BC00FA30BD000420BC0B692A831605104D
:1004E000831205108316851083128510831605115B
:1004F0008312051183168511831285110230BC0009
:10050000FA30BD000420BC0B802ABB013B0F892AB6
:10051000902A3B0895003230BD000420BB0A862A91
:10052000BB013B0F942A9D2A3B08FF3CBC00950071
:100530003230BD000420BB0A912A831605108312B5
:1005400005108316851083128510831605118312FA
:10055000051183168511831285118A110A12B02D97
:100560002C30DC0011207808BB003B18B92ABB1CDA
:10057000BC2A0130F800BE2A0030F800F808031940
:10058000B52CBC012430BB002C30DC0011207808D5
:10059000C6006030DC0011207808BE007030DC003E
:1005A00011207808BF002D30DC0011207808C00031
:1005B000461CF82A36123610401B361440132D30D4
:1005C000CD004008CE005E203E1DF12A00303E18CE
:1005D00001300739F7000310F70DF13036057704C5
:1005E000B6006530C1006230C3006630C500182B0C
:1005F000C61C152B36163610C01B3614C0132D30F2
:10060000CD004008CE005E203F0807390739F700CB
:100610000310F70DF13036057704B6007530C100D0
:100620007230C3007630C500182B0030F8009C2CC7
:100630004108DC0011207808C20042080F39B500DB
:10064000B612421BB6164308DC0011207808C4001D
:100650003613C419361702304307C7000030361B63
:100660000130C8004708CF004808D000D6015A30F2
:10067000D5004F08CF03DB00DC0011207808DA003A
:100680004F08CF03DB00DC0011207808D9004F08A9
:10069000CF03DB00DC0011207808D8004F08DC0015
:1006A00011207808D700D401D301D201D101D0089C
:1006B0000319012C5608FA005508840083135618B4
:1006C00083170008F700F801F901FA017A08D4004D
:1006D0007908D3007808D2007708D10055080319AB
:1006E000D603D503550884008313561883170008D2
:1006F000DE01DD01DC01DB00F7017708D1045B08D6
:10070000D2045C08D3045D08D40455080319D60349
:10071000D503550884008313561883170008DE019B
:10072000DD01DC01DB000339DF005C080039E0009B
:100730005D080039E1005E080039E200F701F801C8
:100740007708D1047808D2045F08D3046008D40481
:10075000550884008313561883170008DE01DD0155
:10076000DC01DB00E039DF005C080039E0005D08F7
:100770000039E1005E080039E200F7015F0DF80082
:10078000600DF900610DFA00F80DF90DFA0DF80D84
:10079000F90DFA0DF80DF90DFA0DF80DF90DFA0D28
:1007A000E030F8057708D1047808D2047908D3043A
:1007B0007A08D40455080319D603D50355088400D4
:1007C0008313561883170008DE01DD01DC01DB000E
:1007D000F701F8015B0DF9005C0DFA00F90DFA0D57
:1007E000F90DFA0DF90DFA0DF90DFA0DE030F905D4
:1007F0007708D1047808D2047908D3047A08D4049D
:100800005E2C0230D5020030031C0130D6025508A0
:1008100084008313561883170008DE01DD01DC0114
:10082000DB00E039DF005C080039E0005D080039DA
:10083000E1005E080039E200620CD400610CD300D4
:10084000600CD2005F0CD100D40CD30CD20CD10CB4
:10085000D40CD30CD20CD10CD40CD30CD20CD10CA4
:10086000D40CD30CD20CD10C0730D4055508031985
:10087000D603D50355088400831356188317000840
:10088000DE01DD01DC01DB005B0DF7005C0DF80033
:100890005D0DF9005E0DFA00F70DF80DF90DFA0D7A
:1008A000F70DF80DF90DFA0DF830F7057708D104BA
:1008B0007808D2047908D3047A08D4045108F700E0
:1008C0005208F8005308F9005408FA007A08A30007
:1008D0007908A2007808A1007708A0004508BD00AB
:1008E000350845073D0203188A2C3C08FA003B08EE
:1008F000C7003C08C8003D08DC0011204708840000
:1009000083134818831778088000BB0A0319BC0AB0
:10091000BD0A702CB613C61BB617C61F902CC61383
:10092000361E942CC610952C46102C30CD0046084F
:10093000CE005E200130F800F8080319B52CA0089D
:10094000031DB52C2108023C031DB52CA208031D74
:10095000B52CA308031DB52C8316861083128614AC
:100960002408B8002508B9003A148A110A12B52DD6
:10097000F701F8013B0803103C18F707F70CF80CD7
:10098000BC18F707F70CF80C3C19F707F70CF80C34
:10099000BC19F707F70CF80C3C1AF707F70CF80C22
:1009A000BC1AF707F70CF80C3C1BF707F70CF80C10
:1009B000BC1BF707F70CF80C8A110A120C2D3A1C15
:1009C000632DB808031DF52C83160510831205103E
:1009D0008316851083128510831605118312051165
:1009E00083168511831285119501380B0E2D831600
:1009F0000510831205108316851083128510831647
:100A0000051183120511831685118312851139088A
:100A1000BB001130BC00B82C780895003808023CA7
:100A2000031D232D831605108312051483168510CC
:100A30008312851083160511831205118316851103
:100A40008312851195013808033C031D382D831648
:100A500005108312051083168510831285148316E2
:100A600005118312051183168511831285119501D5
:100A70003808043C031D4D2D831605108312051004
:100A800083168510831285108316051183120515B0
:100A9000831685118312851195013808053C031DC5
:100AA000622D83160510831205108316851083129C
:100AB0008510831605118312051183168511831283
:100AC000851595013A108A110A12B62D1F3083053B
:100AD0005030F7002030840083138001840A6400C2
:100AE000F70B6D2DF101F201F301F401F501F601AF
:100AF000F801F901FA01FB01FC01FD01FE01503092
:100B0000F700A030840083138001840A6400F70B8F
:100B1000842D6030F7001030840083178001840A30
:100B20006400F70B8E2D83135930F700903084004A
:100B300083178001840A6400F70B992D8313A001A9
:100B4000840183131F30830583161F149F141F1500
:100B50009F11073083129F00FF30B7006D29422A92
:100B60008316861083128610B02ADF2CB02DB72D85
:02400E00313748
:00000001FF
;PIC16F876A
